:020000040800F2
:1000000000000220F93C0008913A0008973A0008E5
:100010009D3A0008A33A0008A93A00080000000031
:1000200000000000000000000000000031B00008E7
:10003000AF3A00080000000081B20008BD3A000895
:10004000493D0008493D0008493D0008493D000878
:10005000493D0008D73A0008493D0008493D0008DD
:10006000493D0008493D0008493D0008493D000858
:10007000493D0008493D0008493D0008493D000848
:10008000493D0008493D0008493D0008493D000838
:10009000493D0008493D0008493D0008493D000828
:1000A000E53A0008F93A0008493D0008493D0008D2
:1000B000493D0008493D00080D3B0008493D000846
:1000C000493D0008493D0008493D0008493D0008F8
:1000D000493D0008493D0008493D0008213B000812
:1000E000493D0008493D0008493D0008493D0008D8
:1000F000493D0008353B0008493D0008493D0008DE
:10010000493D0008493D0008493D0008493D0008B7
:10011000493D0008493D0008493D0008493D0008A7
:10012000493D0008493D0008493D0008493D000897
:10013000493D0008493D0008493D0008493D000887
:10014000493D0008493D0008493D0008493D000877
:10015000493D0008493D0008493D0008493D000867
:10016000493D0008493D0008493D0008493D000857
:10017000493D0008493D0008493D000800000000D5
:08018000493D0008493D00085B
:1001900010B5054C237833B9044B13B10448AFF3C1
:1001A00000800123237010BDE0010020000000004A
:1001B0006CE5000808B5034B1BB103490348AFF3D6
:1001C000008008BD00000000E40100206CE500088C
:1001D00001F0FF01102A2BDB10F0070F08D010F8F8
:1001E000013B013A8B422DD010F0070F42B3F6D1FC
:1001F000F0B441EA012141EA014122F007047FF015
:1002000000070023F0E80256083C85EA010586EA6B
:10021000010685FA47F5A3FA87F586FA47F6A5FAA7
:1002200087F68EB9EED1F0BC01F0FF0102F00702B3
:1002300032B110F8013B013A83EA010313B1F8D15E
:100240000020704701387047002D06BF354603383F
:10025000073815F0010F07D1013015F4807F02BF78
:10026000013015F4C03F0130F0BC0138704700BFC9
:10027000034613F8012B002AFBD1181A01387047E6
:1002800081F0004102E000BF83F0004330B54FEA47
:1002900041044FEA430594EA050F08BF90EA020FB4
:1002A0001FBF54EA000C55EA020C7FEA645C7FEA47
:1002B000655C00F0E2804FEA5454D4EB5555B8BF6A
:1002C0006D420CDD2C4480EA020281EA030382EADB
:1002D000000083EA010180EA020281EA0303362D6D
:1002E00088BF30BD11F0004F4FEA01314FF4801C40
:1002F0004CEA113102D0404261EB410113F0004F52
:100300004FEA03334CEA133302D0524263EB430308
:1003100094EA050F00F0A780A4F10104D5F1200EA6
:100320000DDB02FA0EFC22FA05F2801841F1000101
:1003300003FA0EF2801843FA05F359410EE0A5F1D5
:1003400020050EF1200E012A03FA0EFC28BF4CF006
:10035000020C43FA05F3C01851EBE37101F00045BC
:1003600007D54FF0000EDCF1000C7EEB00006EEBC9
:100370000101B1F5801F1BD3B1F5001F0CD3490853
:100380005FEA30004FEA3C0C04F101044FEA4452AA
:1003900012F5800F80F09A80BCF1004F08BF5FEA31
:1003A000500C50F1000041EB045141EA050130BD11
:1003B0005FEA4C0C404141EB0101013C28BFB1F523
:1003C000801FE9D291F0000F04BF01460020B1FA6E
:1003D00081F308BF2033A3F10B03B3F120020CDA41
:1003E0000C3208DD02F1140CC2F10C0201FA0CF01F
:1003F00021FA02F10CE002F11402D8BFC2F1200C84
:1004000001FA02F120FA0CFCDCBF41EA0C01904039
:10041000E41AA2BF01EB0451294330BD6FEA040482
:100420001F3C1CDA0C340EDC04F11404C4F120026D
:1004300020FA04F001FA02F340EA030021FA04F37F
:1004400045EA030130BDC4F10C04C4F1200220FAD6
:1004500002F001FA04F340EA0300294630BD21FA14
:1004600004F0294630BD94F0000F83F4801306BFDA
:1004700081F480110134013D4EE77FEA645C18BFCE
:100480007FEA655C29D094EA050F08BF90EA020F65
:1004900005D054EA000C04BF1946104630BD91EA5D
:1004A000030F1EBF0021002030BD5FEA545C05D160
:1004B0004000494128BF41F0004130BD14F580049F
:1004C0003CBF01F5801130BD01F0004545F0FE4113
:1004D00041F470014FF0000030BD7FEA645C1ABF48
:1004E000194610467FEA655C1CBF0B46024650EA7F
:1004F000013406BF52EA033591EA030F41F40021AB
:1005000030BD00BF90F0000F04BF0021704730B530
:100510004FF4806404F132044FF000054FF0000105
:1005200050E700BF90F0000F04BF0021704730B5C6
:100530004FF4806404F1320410F0004548BF40429B
:100540004FF000013EE700BF42004FEAE2014FEAF0
:1005500031014FEA02701FBF12F07F4393F07F4FCB
:1005600081F06051704732F07F4208BF704793F0CE
:100570007F4F04BF41F40021704730B54FF46074E1
:1005800001F0004521F000411CE700BF50EA0102E4
:1005900008BF704730B54FF000050AE050EA01028D
:1005A00008BF704730B511F0004502D5404261EBFD
:1005B00041014FF4806404F132045FEA915C3FF43E
:1005C000D8AE4FF003025FEADC0C18BF03325FEADB
:1005D000DC0C18BF033202EBDC02C2F1200300FA8C
:1005E00003FC20FA02F001FA03FE40EA0E0021FAB1
:1005F00002F11444BDE600BF70B54FF0FF0C4CF49F
:10060000E06C1CEA11541DBF1CEA135594EA0C0F50
:1006100095EA0C0F00F0DEF82C4481EA030621EA8B
:100620004C5123EA4C5350EA013518BF52EA0335C6
:1006300041F4801143F4801338D0A0FB02CE4FF078
:100640000005E1FB02E506F00042E0FB03E54FF0A8
:100650000006E1FB03569CF0000F18BF4EF0010EA0
:10066000A4F1FF04B6F5007F64F5407404D25FEA9C
:100670004E0E6D4146EB060642EAC62141EA55514F
:100680004FEAC52040EA5E504FEACE2EB4F1FD0C91
:1006900088BFBCF5E06F1ED8BEF1004F08BF5FEA0F
:1006A000500E50F1000041EB045170BD06F00046C1
:1006B00046EA010140EA020081EA0301B4EB5C046E
:1006C000C2BFD4EB0C0541EA045170BD41F4801166
:1006D0004FF0000E013C00F3AB8014F1360FDEBF8B
:1006E000002001F0004170BDC4F10004203C35DA67
:1006F0000C341BDC04F11404C4F1200500FA05F3EA
:1007000020FA04F001FA05F240EA020001F000428A
:1007100021F0004110EBD37021FA04F642EB060100
:100720005EEA430E08BF20EAD37070BDC4F10C042A
:10073000C4F1200500FA04F320FA05F001FA04F2EE
:1007400040EA020001F0004110EBD37041F10001DA
:100750005EEA430E08BF20EAD37070BDC4F12005E5
:1007600000FA05F24EEA020E20FA04F301FA05F24D
:1007700043EA020321FA04F001F0004121FA04F2F5
:1007800020EA020000EBD3705EEA430E08BF20EAC5
:10079000D37070BD94F0000F0FD101F000464000FF
:1007A00041EB010111F4801F08BF013CF7D041EA81
:1007B000060195F0000F18BF704703F00046520085
:1007C00043EB030313F4801F08BF013DF7D043EA56
:1007D0000603704794EA0C0F0CEA135518BF95EA0C
:1007E0000C0F0CD050EA410618BF52EA4306D1D193
:1007F00081EA030101F000414FF0000070BD50EAB2
:10080000410606BF1046194652EA430619D094EA3B
:100810000C0F02D150EA013613D195EA0C0F05D125
:1008200052EA03361CBF104619460AD181EA030179
:1008300001F0004141F0FE4141F470014FF0000031
:1008400070BD41F0FE4141F4780170BD70B54FF0CC
:10085000FF0C4CF4E06C1CEA11541DBF1CEA13554C
:1008600094EA0C0F95EA0C0F00F0A7F8A4EB05042E
:1008700081EA030E52EA03354FEA013100F0888025
:100880004FEA03334FF0805545EA131343EA1263EE
:100890004FEA022245EA111545EA10654FEA0026A3
:1008A0000EF000419D4208BF964244F1FD0404F55C
:1008B000407402D25B084FEA3202B61A65EB0305B8
:1008C0005B084FEA32024FF480104FF4002CB6EB75
:1008D000020E75EB030E22BFB61A754640EA0C00F5
:1008E0005B084FEA3202B6EB020E75EB030E22BF35
:1008F000B61A754640EA5C005B084FEA3202B6EB76
:10090000020E75EB030E22BFB61A754640EA9C0034
:100910005B084FEA3202B6EB020E75EB030E22BF04
:10092000B61A754640EADC0055EA060E18D04FEAC2
:10093000051545EA16754FEA06164FEAC30343EA62
:1009400052734FEAC2025FEA1C1CC0D111F4801F2F
:100950000BD141EA00014FF000004FF0004CB6E728
:1009600011F4801F04BF01430020B4F1FD0C88BFC7
:10097000BCF5E06F3FF6AFAEB5EB030C04BFB6EBD2
:10098000020C5FEA500C50F1000041EB045170BDC5
:100990000EF0004E4EEA113114EB5C04C2BFD4EBF2
:1009A0000C0541EA045170BD41F480114FF0000E76
:1009B000013C90E645EA060E8DE60CEA135594EAF2
:1009C0000C0F08BF95EA0C0F3FF43BAF94EA0C0FF5
:1009D0000AD150EA01347FF434AF95EA0C0F7FF46A
:1009E00025AF104619462CE795EA0C0F06D152EABE
:1009F00003353FF4FDAE1046194622E750EA4106A2
:100A000018BF52EA43067FF4C5AE50EA41047FF4B2
:100A10000DAF52EA43057FF4EBAE12E74FF0FF3C17
:100A200006E000BF4FF0010C02E000BF4FF0010CE8
:100A30004DF804CD4FEA410C7FEA6C5C4FEA430C61
:100A400018BF7FEA6C5C1BD001B050EA410C0CBFB0
:100A500052EA430C91EA030F02BF90EA020F002012
:100A6000704710F1000F91EA030F58BF994208BF79
:100A700090422CBFD8176FEAE37040F00100704736
:100A80004FEA410C7FEA6C5C02D150EA013C07D18D
:100A90004FEA430C7FEA6C5CD6D152EA033CD3D0D8
:100AA0005DF8040B704700BF8446104662468C46D2
:100AB0001946634600E000BF01B5FFF7B7FF002805
:100AC00048BF10F1000F01BD4DF808EDFFF7F4FF2E
:100AD0000CBF012000205DF808FB00BF4DF808EDB9
:100AE000FFF7EAFF34BF012000205DF808FB00BFDC
:100AF0004DF808EDFFF7E0FF94BF012000205DF8FE
:100B000008FB00BF4DF808EDFFF7CEFF94BF0120B2
:100B100000205DF808FB00BF4DF808EDFFF7C4FFAB
:100B200034BF012000205DF808FB00BF4FEA410CF4
:100B30007FEA6C5C02D150EA013C0AD14FEA430CD7
:100B40007FEA6C5C02D152EA033C02D14FF0000014
:100B500070474FF0010070474FEA410212F5001252
:100B600015D211D56FF47873B3EB625212D94FEAF4
:100B7000C12343F0004343EA505311F0004F23FADE
:100B800002F018BF404270474FF00000704750EA33
:100B9000013005D111F0004008BF6FF000407047F0
:100BA0004FF00000704700BF4A0011D212F500124A
:100BB00011D20DD56FF47873B3EB62520ED44FEAB5
:100BC000C12343F0004343EA505323FA02F0704735
:100BD0004FF00000704750EA013002D14FF0FF3073
:100BE00070474FF00000704753B94AB9002908BF59
:100BF00000281CBF4FF0FF314FF0FF3000F070B9FC
:100C0000ADF1080C6DE904CE00F006F8DDF804E063
:100C1000DDE9022304B070472DE9F047089E0D4638
:100C200004460F46002B4AD18A42944665D9B2FA4F
:100C300082F343B102FA03FCC3F120029F4020FA81
:100C400002F217439C404FEA1C4E1FFA8CF5B7FB8B
:100C5000FEF1220C0EFB117742EA074201FB05F080
:100C600090420AD91CEB020201F1FF3780F01C818F
:100C7000904240F2198102396244121AA4B2B2FBC6
:100C8000FEF00EFB102244EA024400FB05F5A542EB
:100C90000AD91CEB040400F1FF3280F00781A54261
:100CA00040F204816444023840EA0140641B0021A0
:100CB0001EB1DC400023C6E90043BDE8F0878B424B
:100CC00008D9002E00F0ED800021C6E90005084695
:100CD000BDE8F087B3FA83F1002949D1AB4202D3D2
:100CE000824200F2F880841A65EB03020120174665
:100CF000002EE2D0C6E90047DFE702B9FFDEB2FA14
:100D000082F3002B40F090808A1A4FEA1C471FFAAA
:100D10008CFE0121B2FBF7F507FB1520220C42EAFD
:100D200000420EFB05F0904208D91CEB020205F1CF
:100D3000FF3802D2904200F2CB804546121AA4B28C
:100D4000B2FBF7F007FB102244EA02440EFB00FE60
:100D5000A64508D91CEB040400F1FF3202D2A645D7
:100D600000F2BB801046A4EB0E0440EA05409FE76A
:100D7000C1F120078B4022FA07FC4CEA030C05FA6C
:100D800001F420FA07F3FD404FEA1C492343B5FB69
:100D9000F9F81FFA8CFE09FB18551C0C44EA0544AF
:100DA00008FB0EF5A54202FA01F200FA01F00BD998
:100DB0001CEB040408F1FF3A80F08880A54240F261
:100DC0008580A8F102086444641B9DB2B4FBF9F36A
:100DD00009FB134445EA044403FB0EFEA64508D96B
:100DE0001CEB040403F1FF356CD2A6456AD9023B23
:100DF000644443EA0843A3FB0295A4EB0E04AC420F
:100E0000C846AE4656D353D056B1B0EB080264EB99
:100E10000E0404FA07F7CA40CC401743C6E9007431
:100E200018460021BDE8F087C3F1200102FA03FC57
:100E300020FA01F225FA01F19D402A434FEA1C47AE
:100E40001FFA8CFEB1FBF7F007FB1015110C41EAFD
:100E5000054100FB0EF58D4204FA03F408D91CEBA2
:100E6000010100F1FF382FD28D422DD902386144A3
:100E7000491B92B2B1FBF7F507FB151142EA01429B
:100E800005FB0EF1914208D91CEB020205F1FF3877
:100E900016D2914214D9023D6244521A45EA0041E9
:100EA00038E73146304608E73946E6E61046FBE6C5
:100EB0004845A9D2B9EB020865EB0C0E013BA3E74C
:100EC0004546EAE72B4694E74046D1E7D0467BE724
:100ED000023D624432E708460AE76444023842E7CA
:100EE000704700BF80B400AFBFF34F8F00BF064B09
:100EF000DB6803F4E0620449044B1343CB60BFF3A7
:100F00004F8F00BF00BFFDE700ED00E00400FA05D1
:100F100080B500AF03F04CF900F090F800F088FBCA
:100F200000F018F900F0B4F900F006FA00F0ACFA9D
:100F300000F054FB00F0E0F800F052FA03F0ACF8D7
:100F400005222449244806F004FF244A00212448AD
:100F500007F016FF0346234A1360234A0021234863
:100F600007F00EFF0346224A1360224A002122485E
:100F700007F006FF0346214A1360214A0021214859
:100F800007F0FEFE0346204A1360204A0021204855
:100F900007F0F6FE03461F4A13601F4A00211F4850
:100FA00007F0EEFE03461E4A13601E4A00211E484B
:100FB00007F0E6FE03461D4A13601D4A00211D4846
:100FC00007F0DEFE03461C4A136007F08FFE07F0B1
:100FD000B1FEFEE71C040020B803002040E6000834
:100FE000CD230008FC03002064E60008012400086B
:100FF0000004002088E60008992800080404002066
:10100000ACE60008E129000808040020D0E600084A
:10101000093300080C040020F4E600089D340008A1
:101020001004002018E70008A93400081404002068
:101030003CE70008313500081804002080B594B062
:1010400000AF07F120033022002118460BF03FF9D2
:1010500007F10C0300221A605A609A60DA601A6184
:101060000023BB60224B1B6C214A43F08053136466
:101070001F4B1B6C03F08053BB60BB6800237B607D
:101080001C4B1B681B4A43F480431360194B1B68BD
:1010900003F480437B607B6802233B620123FB6295
:1010A00010233B630023BB6307F12003184604F0C1
:1010B00047FC0346002B01D002F07EFA0F23FB60B1
:1010C00000233B6100237B610023BB610023FB61A4
:1010D00007F10C030021184604F0AAFE0346002B7A
:1010E00001D002F069FA00BF5037BD4680BD00BF95
:1010F000003802400070004080B500AF124B134A28
:101100001A60114B124A5A600F4B00229A600E4B24
:101110000022DA600C4B4FF480421A610A4B002225
:101120005A61094B00229A61074B0022DA61064B93
:1011300000221A62044803F045FC0346002B01D04C
:1011400002F03AFA00BF80BDFC01002000540040CC
:10115000A086010080B596B000AF07F148030022D9
:101160001A605A609A60DA6007F1400300221A6040
:101170005A6007F1240300221A605A609A60DA600C
:101180001A615A619A613B1D2022002118460BF01A
:101190009EF83D4B3D4A1A603B4BA0225A603A4BA9
:1011A00000229A60384B4FF47A72DA60364B002294
:1011B0001A61354B00225A61334B80229A613248C2
:1011C00005F016F80346002B01D002F0F5F94FF4B4
:1011D0008053BB6407F1480319462B4805F08AFE8B
:1011E0000346002B01D002F0E7F9274805F04FF83D
:1011F0000346002B01D002F0DFF900233B640023FB
:101200007B6407F1400319461F4806F0E1FB0346E3
:10121000002B01D002F0D0F960237B620023BB6277
:101220000023FB6200237B630023BB630023FB637B
:1012300007F124030C221946134805F099FD0346D3
:10124000002B01D002F0B8F900237B600023BB60C3
:101250000023FB6000233B6100237B614FF40053BC
:10126000BB6100233B623B1D1946074806F02CFC7E
:101270000346002B01D002F09FF9034802F07EFBE9
:1012800000BF5837BD4680BD50020020000001401D
:1012900080B58CB000AF07F10C0324220021184662
:1012A0000BF015F83B1D00221A605A60214B4FF0DD
:1012B00080421A601F4B00225A601E4B00229A6027
:1012C0001C4B4FF6FF72DA601A4B00221A61194B61
:1012D00000229A610323FB6000233B6101237B61B1
:1012E0000023BB610A23FB6100233B6201237B6275
:1012F0000023BB620A23FB6207F10C0319460D4869
:1013000005F05EFA0346002B01D002F055F90023E8
:101310007B600023BB603B1D1946064806F058FB66
:101320000346002B01D002F047F900BF3037BD461D
:1013300080BD00BF9802002080B58CB000AF07F1DF
:101340000C032422002118460AF0C1FF3B1D002295
:101350001A605A60204B214A1A601F4B00225A60C3
:101360001D4B00229A601C4B4FF6FF72DA601A4B3D
:1013700000221A61184B00229A610323FB600023AC
:101380003B6101237B610023BB610A23FB610023D6
:101390003B6201237B620023BB620A23FB6207F1ED
:1013A0000C0319460C4805F00BFA0346002B01D03C
:1013B00002F002F900237B600023BB603B1D19464D
:1013C000054806F005FB0346002B01D002F0F4F8B7
:1013D00000BF3037BD4680BDE00200200004004061
:1013E00080B586B000AF07F1100300221A605A6082
:1013F0003B4600221A605A609A60DA60204B214A0C
:101400001A601F4B0F225A601D4B00229A601C4B22
:101410004FF6FF72DA601A4B00221A61184B002255
:101420009A61174805F054F80346002B01D002F0EA
:10143000C3F800233B6100237B6107F110031946C9
:101440000F4806F0C5FA0346002B01D002F0B4F8AD
:1014500000233B6001237B600023BB600023FB6013
:101460003B4600221946064805F0E6FB0346002BE2
:1014700001D002F0A1F800BF1837BD4680BD00BF03
:10148000280300200008004080B596B000AF07F1A7
:10149000480300221A605A609A60DA6007F140033C
:1014A00000221A605A6007F1240300221A605A6071
:1014B0009A60DA601A615A619A613B1D202200210C
:1014C00018460AF004FF434B434A1A60414B00227E
:1014D0005A60404B00229A603E4B41F61F42DA6050
:1014E0003C4B00221A613B4B00225A61394B0022CF
:1014F0009A61384804F07CFE0346002B01D002F0CC
:101500005BF84FF48053BB6407F148031946314838
:1015100005F0F0FC0346002B01D002F04DF82D48F9
:1015200004F0B5FE0346002B01D002F045F800237D
:101530003B6400237B6407F140031946254806F00D
:1015400047FA0346002B01D002F036F860237B6295
:101550000023BB620023FB6200233B6300237B6309
:101560000023BB630023FB6307F124030022194619
:10157000184805F0FDFB0346002B01D002F01CF8D3
:1015800007F1240304221946124805F0F1FB034633
:10159000002B01D002F010F800237B600023BB6019
:1015A0000023FB6000233B6100237B614FF4005369
:1015B000BB6100233B623B1D1946064806F084FAD6
:1015C0000346002B01D001F0F7FF00BF5837BD469E
:1015D00080BD00BF700300200004014080B500AF53
:1015E000114B124A1A60104B4FF4E1325A600E4B05
:1015F00000229A600C4B0022DA600B4B00221A6129
:10160000094B0C225A61084B00229A61064B0022BA
:10161000DA61054806F0BEFA0346002B01D001F05E
:10162000CBFF00BF80BD00BFB803002000480040D2
:1016300080B58CB000AF07F11C0300221A605A601D
:101640009A60DA601A610023BB615B4B1B6B5A4ADC
:1016500043F010031363584B1B6B03F01003BB6183
:10166000BB6900237B61544B1B6B534A43F08003DF
:101670001363514B1B6B03F080037B617B69002379
:101680003B614D4B1B6B4C4A43F0010313634A4BC8
:101690001B6B03F001033B613B690023FB60464B7E
:1016A0001B6B454A43F002031363434B1B6B03F070
:1016B0000203FB60FB680023BB603F4B1B6B3E4A91
:1016C00043F0080313633C4B1B6B03F00803BB6040
:1016D000BB6800237B60384B1B6B374A43F0040325
:1016E0001363354B1B6B03F004037B607B680022A4
:1016F0004FF4BC61314803F031F900223C213048FD
:1017000003F02CF900224FF480612E4803F026F9F3
:1017100000224FF400512C4803F020F94FF4BC6331
:10172000FB6101233B6200237B620023BB6207F164
:101730001C031946214802F075FF3C23FB6101237D
:101740003B6200237B620223BB6207F11C03194644
:101750001B4802F067FF4FF48063FB6101233B628B
:1017600000237B620023BB6207F11C031946154866
:1017700002F058FF4FF48073FB614FF488133B6213
:1017800000237B6207F11C0319460F4802F04AFF51
:101790004FF40053FB6101233B6200237B62002373
:1017A000BB6207F11C031946074802F03BFF00BF6C
:1017B0003037BD4680BD00BF0038024000100240F7
:1017C0000000024000040240000C024080B582B0DC
:1017D00000AF786005220449044806F0BAFA00BF59
:1017E0000837BD4680BD00BF1C040020B8030020A0
:1017F00080B582B000AF78607B681B7F012B40F022
:101800008A80494B1B68002B1BD10021786805F0AA
:1018100039FC03461A46454B1A60434B01221A60B5
:101820007B681B681A6A7B681B6822F00A021A62CE
:101830007B681B681A6A7B681B6842F002021A62A6
:1018400069E0394B1B68012B65D10021786805F0F0
:1018500019FC03461A46364B1A607B681B68002247
:101860005A62334B1A68314B1B689A420ADD304B7F
:101870001B689AB22D4B1B689BB2D31A9AB22D4BA0
:101880001A8011E0294B1A68294B1B689A420BDD1C
:10189000274B1B689AB2254B1B689BB2D31A9BB28D
:1018A000013B9AB2234B1A80224B1B881846FEF745
:1018B00039FE1BA3D3E90023FEF79EFE02460B462A
:1018C000104619464FF000024FF08043FEF7BEFF6E
:1018D00002460B4610461946FFF766F903469AB2D0
:1018E000154B1A80104B00221A607B681B681A6A1D
:1018F0007B681B6822F00A021A627B681A687B68A0
:101900001B68126A1A620D4B1B68DA680B4B1B6866
:1019100022F00202DA6000BF0837BD4680BD00BF7A
:10192000006F8104C58FA13F84040020880400203B
:101930008C04002090040020920400202803002042
:1019400080B483B000AF0346FB80094B1B680022C4
:101950005A6200BF064B1B685A6AFB889A42F9D349
:1019600000BF00BF0C37BD465DF8047B704700BF69
:101970002803002080B500AF01224FF400510B482E
:1019800002F0ECFF1420FFF7DBFF00224FF40051C0
:10199000064802F0E3FF064B1B68DA68044B1B683D
:1019A00042F00202DA6000BF80BD00BF000C0240BE
:1019B0002803002080B500AF4FF48061064802F094
:1019C000E6FF4FF4FA7002F065FC4FF480610248C4
:1019D00002F0DDFF00BF80BD0004024080B500AF13
:1019E000FFF780FA0000000080B582B000AF87EDFD
:1019F000000B2DA3D3E90023D7E90001FEF7FCFD7E
:101A000002460B46C7E900231F4B95221A801F4B45
:101A100000221A601E4B00221A601E4B1E4A1A60DA
:101A20001E4B1D4A1A601E4B1B4A1A601D4B1A4A58
:101A30001A601B4B1B681846FEF774FDD7E900239C
:101A4000FEF724FC02460B4610461946FFF784F8C1
:101A50000346134A1360134B1B681846FEF762FDDA
:101A6000D7E90023FEF712FC02460B461046194642
:101A7000FFF772F803460B4A136000BF0837BD46F4
:101A800080BD00BFAFF300800000002044040020B0
:101A90004004002048040020F82401004C040020E9
:101AA00050040020540400200000000000C05240F8
:101AB00080B582B000AF87ED000B0E4BE6221A8096
:101AC000322007F0EFF90C4B00221A600B4B00227A
:101AD0001A600B4BD3E90001D7E90023FEF7D4FBD2
:101AE00002460B460649C1E9002300BF0837BD4640
:101AF00080BD00BF000000204404002040040020FE
:101B00005804002080B582B000AF87ED000B0E4B6B
:101B1000D7221A80322007F0C5F90C4B00221A6038
:101B20000B4B00221A600B4BD3E90001D7E90023CD
:101B3000FEF7AAFB02460B460649C1E9002300BF97
:101B40000837BD4680BD00BF0000002044040020CF
:101B5000400400205804002080B582B000AF87ED1B
:101B6000000B0E4BC8221A80322007F09BF90C4B59
:101B700000221A600B4B00221A600B4BD3E90001C4
:101B8000D7E90023FEF780FB02460B460649C1E970
:101B9000002300BF0837BD4680BD00BF0000002005
:101BA00044040020400400205804002080B582B086
:101BB00000AF87ED000B0E4B5A221A80322007F03F
:101BC00071F90C4B00221A600B4B00221A600B4B70
:101BD000D3E90001D7E90023FEF758FB02460B4684
:101BE0000649C1E9002300BF0837BD4680BD00BFDC
:101BF000000000204404002040040020580400207D
:101C000080B582B000AF87ED000B0E4B69221A80C1
:101C1000322007F047F90C4B00221A600B4B0022D0
:101C20001A600B4BD3E90001D7E90023FEF72EFB26
:101C300002460B460649C1E9002300BF0837BD46EE
:101C400080BD00BF000000204404002040040020AC
:101C50005804002080B582B000AF87ED000B0E4B1A
:101C600078221A80322007F01DF90C4B00221A60EE
:101C70000B4B00221A600B4BD3E90001D7E900237C
:101C8000FEF704FB02460B460649C1E9002300BFEC
:101C90000837BD4680BD00BF00000020440400207E
:101CA000400400205804002080B584B000AF87EDC8
:101CB000000B21494FF000024FF00003C1E900235F
:101CC0001E494FF000024FF00003C1E900231C49F8
:101CD0004FF000024FF00003C1E90023194B00222E
:101CE0001A600123FB604FF000024FF00003D7E9B8
:101CF0000001FEF7F3FE0346002B02D04FF0FF3346
:101D0000FB60114B95221A80104B00221A6097ED50
:101D1000000BFFF7CDFE00BF00F090FA0346002B4A
:101D2000FAD1322007F0BEF8074B95221A8000BF87
:101D30001037BD4680BD00BF58040020600400205D
:101D4000680400204404002000000020400400201B
:101D500080B58AB000AF87ED000B4FF000024FF066
:101D60000003C7E908234FF000024FF00003C7E962
:101D700006234FF000024FF00003C7E90423164B7F
:101D800000221A600123FB604FF000024FF00003B5
:101D9000D7E90001FEF7A2FE0346002B02D04FF068
:101DA000FF33FB600D4B95221A800D4B00221A6009
:101DB00097ED000BFFF7A6FE00BF00F03FFA0346C9
:101DC000002BFAD1322007F06DF8044B95221A80CF
:101DD00000BF2837BD4680BD44040020000000201D
:101DE0004004002080B58AB000AF87ED000B4FF0B3
:101DF00000024FF00003C7E908234FF000024FF044
:101E00000003C7E906234FF000024FF00003C7E9C3
:101E10000423164B00221A600123FB604FF00002DE
:101E20004FF00003D7E90001FEF758FE0346002BF0
:101E300002D04FF0FF33FB600D4B95221A800D4B03
:101E400000221A6097ED000BFFF786FE00BF00F03E
:101E5000F5F90346002BFAD1322007F023F8044BA2
:101E600095221A8000BF2837BD4680BD440400205B
:101E7000000000204004002080B58AB000AF87ED4C
:101E8000000B4FF000024FF00003C7E908234FF0AA
:101E900000024FF00003C7E906234FF000024FF0A5
:101EA0000003C7E90423164B00221A600123FB60DC
:101EB0004FF000024FF00003D7E90001FEF70EFEDD
:101EC0000346002B02D04FF0FF33FB600D4B9522F1
:101ED0001A800D4B00221A6097ED000BFFF766FE8B
:101EE00000BF00F0ABF90346002BFAD1322006F018
:101EF000D9FF044B95221A8000BF2837BD4680BD0C
:101F000044040020000000204004002080B58AB076
:101F100000AF87ED000B4FF000024FF00003C7E960
:101F200008234FF000024FF00003C7E906234FF0EB
:101F300000024FF00003C7E90423164B00221A6089
:101F40000123FB604FF000024FF00003D7E90001CE
:101F5000FEF7C4FD0346002B02D04FF0FF33FB60B9
:101F60000D4B95221A800D4B00221A6097ED000B45
:101F7000FFF746FE00BF00F061F90346002BFAD1DF
:101F8000322006F08FFF044B95221A8000BF2837BD
:101F9000BD4680BD44040020000000204004002015
:101FA00080B58AB000AF87ED000B4FF000024FF014
:101FB0000003C7E908234FF000024FF00003C7E910
:101FC00006234FF000024FF00003C7E90423164B2D
:101FD00000221A600123FB604FF000024FF0000363
:101FE000D7E90001FEF77AFD0346002B02D04FF03F
:101FF000FF33FB600D4B95221A800D4B00221A60B7
:1020000097ED000BFFF726FE00BF00F017F903461F
:10201000002BFAD1322006F045FF044B95221A809E
:1020200000BF2837BD4680BD4404002000000020CA
:102030004004002080B582B000AF786039603B6812
:10204000002B18D07B68002B0ADD012210213548B7
:1020500002F084FC00222021324802F07FFC22E0C2
:10206000002210212F4802F079FC012220212D4866
:1020700002F074FC17E07B68002B0ADD01220821C6
:10208000284802F06BFC00220421264802F066FC7E
:1020900009E000220821234802F060FC012204210B
:1020A000204802F05BFC7B68002BB8BF5B427B6082
:1020B0007B68B3F5FA6F02DD40F6B8332DE07B683C
:1020C000B3F5FA7F02DD4FF4FA6326E07B68C82B94
:1020D00002DD4FF4AF6320E07B68642B02DD4FF438
:1020E0007A731AE07B68022B07DD0F4B1B68013304
:1020F0000D4A13604FF4FA730FE07B68002B06DD86
:10210000094B1B680133084A1360002305E0064BA6
:102110001B680133044A1360002318460837BD4684
:1021200080BD00BF000002404004002080B586B0A2
:1021300000AF87ED020B78604FF000023C4BD7E90F
:102140000201FEF759FA02460B4610461946FEF701
:1021500003FD03467B617B68002B18D07B69002B55
:102160000ADD01221021334802F0F8FB0022202171
:10217000304802F0F3FB22E0002210212D4802F04B
:10218000EDFB012220212B4802F0E8FB17E07B69E0
:10219000002B0ADA01220821264802F0DFFB002288
:1021A0000421244802F0DAFB09E00022082121483A
:1021B00002F0D4FB012204211E4802F0CFFB7B6910
:1021C000002BB8BF5B427B617B69B3F5967F02DD74
:1021D00040F6B83328E07B69C82B02DD4FF4FA6380
:1021E00022E07B69962B02DD4FF4C8631CE07B691B
:1021F000642B02DD4FF4AF6316E07B690A2B02DD2E
:102200004FF47A7310E07B69012B07DD0A4B1B68E2
:102210000133094A13604FF4167305E0064B1B683F
:102220000133054A1360002318461837BD4680BDA8
:1022300000002440000002404004002080B500AFB0
:10224000104B1B68142B1ADD0F4B01221A600F4B29
:1022500000221A800D4B1A880D4B1A800D4B1B68FB
:102260000D4A13600D4B1B680D4A1360054B00228D
:102270001A604FF4967006F015FE002300E001236B
:10228000184680BD40040020440400203C04002087
:102290003E0400204C040020540400204804002088
:1022A0005004002080B584B002AF03463960FB7152
:1022B0000F4AFB7913700F4B1B789BB25B0099B2EE
:1022C0000A23009301230A4A0B4802F0BFFC094B82
:1022D0001B789BB25B0099B21423009302233A68E7
:1022E000054802F0B1FD00BF0837BD4680BD00BF04
:1022F0007004002002000020FC01002080B584B0A2
:1023000002AF03460A46FB711346BB710A4AFB79CA
:102310001370094ABB795370084B1B789BB25B0062
:1023200099B2142300930223034A054802F08EFC5D
:1023300000BF0837BD4680BD7004002002000020A9
:10234000FC01002080B500AF00210620FFF7D6FF7A
:102350000A2006F0A7FD80210320FFF7CFFF0A2007
:1023600006F0A0FD07210720FFF7C8FF0A2006F0AE
:1023700099FD01210620FFF7C1FF0A2006F092FD1A
:1023800020217F20FFF7BAFF0A2006F08BFD2F21C6
:102390000120FFF7B3FF0A2006F084FD0021002092
:1023A000FFF7ACFF0A2006F07DFD00217F20FFF73C
:1023B000A5FF0A2006F076FD00210720FFF79EFF0B
:1023C0000A2006F06FFD00BF80BD000080B588B018
:1023D00000AF78600021074804F0CAF84123FB777A
:1023E0004FF4FA6006F05EFD4FF48061024802F09F
:1023F000CEFAF5E72803002000100240000000009C
:1024000090B587B000AF7860AB4B00221A80AB4B21
:1024100000221A8000237B610021A94803F090FF6D
:102420000421A74803F08CFF0C21A64803F088FF85
:10243000A44B1B6895221A6401221021A24802F0C5
:102440008DFA00222021A04802F088FA01220821FA
:102450009D4802F083FA002204219B4802F07EFA94
:102460004FF47A7006F01EFD984B1A88954B1B6846
:102470001A64974BD3E90001964BD3E90023FDF78B
:1024800003FF02460B46C7E90223904B1B887E2BB5
:102490004CD8012097ED020BFFF748FE0346184683
:1024A000FEF740F880A3D3E90023FEF7A5F8024623
:1024B0000B4610461946FEF777FB03469AB27E4B51
:1024C0001A807D4B1B881846FEF72CF878A3D3E9B9
:1024D0000023FEF791F802460B4610461946FEF718
:1024E00063FB03469AB2754B1A804FF000024FF01F
:1024F0000003D7E90201FEF70FFB0346002B0AD0C9
:1025000001220821704802F029FA002204216E48B5
:1025100002F024FA4FE1002208216B4802F01EFA73
:1025200001220421684802F019FA44E1674B1B8834
:10253000BD2B3DD9002097ED020BFFF7F7FD0346B9
:102540009AB25E4B1A805D4B1B881846FDF7EAFF76
:1025500057A3D3E90023FEF74FF802460B46104677
:102560001946FEF721FB03469AB2534B1A804FF0EF
:1025700000024FF00003D7E90201FEF7AFFA03466D
:10258000002B0AD0012210214F4802F0E7F9002267
:1025900020214D4802F0E2F90DE1002210214A48C5
:1025A00002F0DCF901222021474802F0D7F902E1CC
:1025B000494B1A68494B1B68D31A00211846FFF78C
:1025C00039FD03461846FDF7ADFF37A3D3E90023D5
:1025D000FEF712F802460B4610461946FEF7E4FADB
:1025E00003469AB2344B1A803B4B1A683B4B1B682C
:1025F000D31A83EAE372A2EBE372394B1968394BC1
:102600001B68CB1A002BB8BF5B429A4203DD7B6983
:1026100001337B6102E07B69013B7B612E4B1A68D1
:102620002E4B1B68D31A13F1630F08DB2A4B1A6871
:102630002A4B1B68D31A632B01DC00237B61284BD8
:102640001A68284B1B68D31A01211846FFF7F2FCC1
:1026500003469AB27B699BB213449AB2174B1A8015
:102660001D4B1A681D4B1B68D31A002B64DA4FF000
:1026700000021D4BD7E90201FEF74EFA0346002B7C
:1026800003D0124BA8221A8095E04FF00002174B9E
:10269000D7E90201FEF722FA0346002B28D00B4BA4
:1026A00082221A8087E000BFF4FDD478E926F13F4A
:1026B000E17A14AE47E1E23F3C0400203E040020F2
:1026C00070030020500200200000024000000020A3
:1026D0005804002060040020540400204C04002012
:1026E000500400204804002000001440000014C0E2
:1026F0004FF000025A4BD7E90201FDF77DFF024679
:102700000B46104619464FF00002564BFEF79EF856
:1027100002460B46104619464DA3D3E90023FDF7A8
:10272000B5FD02460B4610461946FEF73DFA034634
:102730009AB24D4B1A803EE04FF00002494BD7E968
:102740000201FEF7E9F90346002B03D0464B822233
:102750001A8030E04FF00002444BD7E90201FEF747
:10276000BDF90346002B03D03F4BA8221A8022E07C
:102770004FF000023E4BD7E90201FDF73DFF024654
:102780000B46104619464FF00002364BFEF75EF836
:1027900002460B46104619462DA3D3E90023FDF748
:1027A00075FD02460B4610461946FEF7FDF9034635
:1027B0009AB22D4B1A802F4B1B68002B0ED02E4B3C
:1027C00000221A802C4B1A882C4B1A802C4B1B6829
:1027D0002C4A13602C4B1B682C4A1360274B1B8818
:1027E0001846FDF79FFE1CA3D3E90023FDF704FF65
:1027F00002460B4626490C6810461946FEF7D4F9E6
:10280000034663631C4B1B881846FDF78BFE12A31F
:10281000D3E90023FDF7F0FE02460B461C490C6885
:1028200010461946FEF7C0F90346A363012006F0DF
:1028300039FB184B1B68B3F57A7F03DD154B40F26B
:10284000E9321A600A2006F02DFB0DE6AFF3008096
:102850000000000000A06240666666666666F63F9D
:10286000000033400000144000000020000014C0AD
:10287000000033C0440400203C0400203E0400203B
:102880004C04002054040020480400205004002080
:102890007003002040040020B0B596B004AF78600B
:1028A00000233B6307F1340300221A605A609A60E8
:1028B000DA600023FB6107F1200300221A605A60EE
:1028C0009A60DA600023BB6007F10C0300221A60F3
:1028D0005A609A60DA60FFF74DF8142006F0E2FAC9
:1028E000384B1B881A4607F130033749184609F060
:1028F0008BFC07F130031A460A21002001F09AFBF5
:10290000324BD3E90045314BD3E900231046194639
:10291000FEF722F903461846FDF704FE02460B4671
:1029200020462946FDF7B0FC02460B4610461946E4
:102930004FF00002264BFDF75FFE02460B461046A5
:102940001946FEF709F90346002BB8BF5B427B64CA
:102950001E4BD3E9002310461946FEF7FDF8024648
:1029600007F11C007B6C1B4909F04EFC07F11C03AE
:102970001A461421002001F05DFB174B1B781C4602
:10298000154B5B781D46144B9B781A46124BDB782F
:102990001946114B1B7907F108000293019100922F
:1029A0002B4622460D4909F02FFC07F108031A4671
:1029B0001E21002001F03EFB01F0C8F90A2006F0BC
:1029C00071FA88E792040020F0E500086004002016
:1029D00000408F4000E600081C04002010E60008BC
:1029E00080B58AB000AF78602923FB770123BB61F3
:1029F000B94B2D221A70B84B57225A70B64B412250
:102A00009A70B54B4922DA70B34B54221A710123E4
:102A10007B6201233B62B14B00221A60AE4B1A78F5
:102A2000AF4B1A70AC4B5A78AE4B1A70AA4B9B78CE
:102A3000303B642202FB03F1A74BDB78A3F13002A9
:102A400013469B0013445B00CA18A34B1B79303B11
:102A50001344A24A13600123BB619F4B1B78FA7F8A
:102A60009A4200F0FF834FF4FA7006F01BFA9C4B79
:102A70001B78413B192B00F2F48301A252F823F09A
:102A8000ED2A000863320008633200086332000850
:102A900063320008633200086332000863320008C2
:102AA0006332000863320008633200084F2B0008CD
:102AB000352D00085B2E0008E12F000807310008C3
:102AC00063320008212C000863320008E92A00085C
:102AD0006332000863320008633200086332000882
:102AE000633200082D320008FEF778FF7E4B1B880A
:102AF000142B10D87D4B00221A607B4B1B88C3F12E
:102B000014031846FDF70EFD02460B4643EC102B4E
:102B1000FEF76AFF17E0754B00221A60744B012222
:102B20001A60744B01221A606B4B44221A706A4B74
:102B30004F225A70684B4E229A70674B4522DA70CA
:102B4000654B21221A710A2006F0ACF98AE37B6AF0
:102B5000002B34D09FED5A0BFFF722FA322006F0FB
:102B6000A1F99FED570BFFF73DF9322006F09AF9D6
:102B70009FED550BFEF738FF4FF4FA7006F092F90F
:102B80009FED4F0BFFF72EF9322006F08BF99FEDEA
:102B90004C0BFFF705FA322006F084F99FED4C0B41
:102BA000FEF722FF4FF4FA7006F07CF9524B1B68D7
:102BB00095221A64322006F075F900237B624A4B95
:102BC0001B88142B10D8494B00221A60464B1B88D7
:102BD000C3F114031846FDF7A5FC02460B4643EC6F
:102BE000102BFEF701FF17E0404B00221A60404B0C
:102BF00001221A603F4B01221A60374B44221A709F
:102C0000354B4F225A70344B4E229A70324B45222C
:102C1000DA70314B21221A710A2006F043F921E3C0
:102C20007B6A002B34D09FED260BFFF7DBF83220B8
:102C300006F038F99FED220BFFF7B2F9322006F0CB
:102C400031F99FED210BFEF7CFFE4FF4FA7006F03D
:102C500029F99FED1B0BFFF7A3F9322006F022F9AB
:102C60009FED170BFFF7BEF8322006F01BF99FED22
:102C7000180BFEF7B9FE4FF4FA7006F013F91E4B6D
:102C80001B6895221A64322006F00CF900237B623F
:102C9000154B1B88142B31D8144B00221A60124B91
:102CA0001B88C3F114031846FDF73CFC02460B4693
:102CB00043EC102BFEF798FE38E000BFAFF3008026
:102CC000000000000000474000000000000010402D
:102CD00000000000000037C01C0400203804002061
:102CE0003404002035040020920400204004002019
:102CF000440400203004002050020020B24B002287
:102D00001A60B24B01221A60B14B01221A60B14B1A
:102D100044221A70AF4B4F225A70AE4B4E229A701B
:102D2000AC4B4522DA70AB4B21221A710A2006F017
:102D3000B9F897E23B6A002B44D09FED910BFFF767
:102D40009BF8A54B1B6895221A64322006F0AAF85E
:102D50009FED8D0BFEF748FE4FF47A7006F0A2F857
:102D60009FED8B0BFEF7F4FF4FF4FA7006F09AF824
:102D70009FED890BFEF738FE4FF4FA6006F092F8EB
:102D80009FED830BFEF7E4FF4FF4FA7006F08AF82C
:102D90009FED830BFEF70AFF4FF4FA7006F082F8FE
:102DA0009FED810BFEF720FE4FF4FA7006F07AF8E3
:102DB0009FED7F0BFEF77CFE4FF4FA7006F072F881
:102DC00000233B62854B1B88312B0FD97E4B0022A1
:102DD0001A60824B1B88323B1846FDF7A3FB024664
:102DE0000B4643EC102BFEF7FFFD32E0764B002242
:102DF0001A609FED710BFEF7F5FF9FED6F0BFFF76C
:102E0000CFF8322006F04EF80AE06F4B00221A602D
:102E10009FED650BFEF7E8FD4FF4FA7006F042F8FF
:102E20006E4B1B88132BF0D8684B01221A60684B3D
:102E300001221A60674B44221A70664B4F225A7067
:102E4000644B4E229A70634B4522DA70614B21220B
:102E50001A710A2006F026F804E23B6A002B44D0DF
:102E60009FED470BFEF720FF5B4B1B6895221A6412
:102E7000322006F017F89FED4E0BFEF7B5FD4FF42C
:102E80007A7006F00FF89FED420BFFF73FF84FF412
:102E9000FA7006F007F89FED4A0BFEF7A5FD4FF418
:102EA000FA6005F0FFFF9FED3A0BFFF72FF84FF4A4
:102EB000FA7005F0F7FF9FED3A0BFEF7F9FD4FF4BE
:102EC000FA7005F0EFFF9FED380BFEF78DFD4FF424
:102ED000FA7005F0E7FF9FED360BFEF767FE4FF443
:102EE000FA7005F0DFFF00233B623C4B1B88312B5F
:102EF0000FD9354B00221A60384B1B88323B1846DD
:102F0000FDF710FB02460B4643EC102BFEF76CFD61
:102F100032E02D4B00221A609FED270BFFF740F89F
:102F20009FED250BFEF75EFF322005F0BBFF0AE0A8
:102F3000254B00221A609FED1C0BFEF755FD4FF448
:102F4000FA7005F0AFFF254B1B88132BF0D81F4BF1
:102F500001221A601E4B01221A601E4B44221A7075
:102F60001C4B4F225A701B4B4E229A70194B452214
:102F7000DA70184B21221A710A2005F093FF71E1D3
:102F800000000000008056400000000000003940B2
:102F900000000000008066400000000000C05740B4
:102FA0000000000000805B400000000000002440A2
:102FB0000000000000003440000000000080464097
:102FC000000000000000594040040020440400209C
:102FD000300400201C040020500200209204002035
:102FE0003B6A002B44D09FEDAE0BFEF75DFEBE4B5F
:102FF0001B6895221A64322005F054FF9FEDAA0B3E
:10300000FEF7F2FC4FF47A7005F04CFF9FEDA80B31
:10301000FEF77CFF4FF4FA7005F044FF9FEDA60B1E
:10302000FEF7E2FC4FF4FA6005F03CFF9FEDA00BC9
:10303000FEF76CFF4FF4FA7005F034FF9FEDA00B24
:10304000FEF736FD4FF4FA7005F02CFF9FED9E0B56
:10305000FEF7CAFC4FF4FA7005F024FF9FED920BC7
:10306000FEF7A4FD4FF4FA7005F01CFF00233B624D
:103070009E4B1B88312B0FD99D4B00221A609B4B16
:103080001B88323B1846FDF74DFA02460B4643ECCF
:10309000102BFEF7A9FC32E0954B00221A609FED41
:1030A0008C0BFEF77DFF9FED8A0BFEF79BFE322017
:1030B00005F0F8FE0AE08E4B00221A609FED820BAD
:1030C000FEF792FC4FF4FA7005F0ECFE874B1B887C
:1030D000132BF0D8874B01221A60874B01221A600C
:1030E000864B44221A70854B4F225A70834B4E22D6
:1030F0009A70824B4522DA70804B21221A710A2085
:1031000005F0D0FEAEE03B6A002B44D09FED640B8F
:10311000FEF7B2FE744B1B6895221A64322005F04C
:10312000C1FE9FED6D0BFEF75FFC4FF47A7005F06A
:10313000B9FE9FED5F0BFEF70BFE4FF4FA7005F042
:10314000B1FE9FED670BFEF74FFC4FF4FA6005F000
:10315000A9FE9FED570BFEF7FBFD4FF4FA7005F04B
:10316000A1FE9FED570BFEF721FD4FF4FA7005F01D
:1031700099FE9FED550BFEF737FC4FF4FA7005F002
:1031800091FE9FED490BFEF793FC4FF4FA7005F0AA
:1031900089FE00233B62554B1B88312B0FD9544BC2
:1031A00000221A60514B1B88323B1846FDF7BAF9D2
:1031B00002460B4643EC102BFEF716FC32E04C4B5C
:1031C00000221A609FED420BFEF70CFE9FED400BB4
:1031D000FEF7E6FE322005F065FE0AE0444B0022D1
:1031E0001A609FED390BFEF7FFFB4FF4FA7005F004
:1031F00059FE3E4B1B88132BF0D83E4B01221A6020
:103200003D4B01221A603D4B44221A703B4B4F222A
:103210005A703A4B4E229A70384B4522DA70374B2F
:1032200021221A710A2005F03DFE1BE0FEF7C2FBC9
:10323000314B01221A602E4B00221A602F4B442280
:103240001A702E4B4F225A702C4B4E229A702B4BD9
:103250004522DA70294B21221A71642005F022FEE2
:1032600000E000BF244B1B68012B13D1322005F076
:1032700019FE07F10C032249184608F0C5FF07F1B3
:103280000C014FF6FF730A221E4804F0D0FC1A4BC3
:1032900000221A600A2005F005FEFFF7BCBB00BF44
:1032A0000000000000805640000000000000344094
:1032B000000000000080664000000000000059404F
:1032C0000000000000805B4000000000000024407F
:1032D000000000000080464000000000000039406F
:1032E0000000000000C0574050020020920400205F
:1032F0004004002044040020300400201C0400206E
:1033000024E60008B8030020B0B58AB000AF7860AA
:10331000FFF718F800233B8100237B8100237B62A9
:103320004FF000024FF00003C7E906234FF0000200
:103330004FF00003C7E904230023FB6048E032207C
:1033400005F0B0FD07F1080319463720FEF7AAFF84
:103350003B7A1B021AB27B7A1BB213437B81B7F90B
:103360000A301846FDF7DEF804460D4600F086FFE9
:1033700002467B6AD31A1846FDF7C4F845A3D3E981
:103380000023FDF763FA02460B4620462946FDF767
:1033900033F902460B46D7E90401FCF777FF0246F2
:1033A0000B46C7E90423B7F90A301846FDF7BAF807
:1033B00002460B46D7E90601FCF768FF02460B46BA
:1033C000C7E9062300F05AFF7862FB680133FB600F
:1033D000FB68632BB3DDF868FDF7A4F802460B46E3
:1033E000D7E90601FDF732FA02460B46C7E9062384
:1033F000FEF7E0FA00F042FF7862322005F052FD5D
:1034000007F1080319463720FEF74CFF3B7A1B02F1
:103410001AB27B7A1BB213437B81B7F90A30184684
:10342000FDF780F8D7E90623FCF72EFF02460B468E
:1034300014461D4600F022FF02467B6AD31A184646
:10344000FDF760F813A3D3E90023FDF7FFF9024667
:103450000B4620462946FDF7CFF802460B4610469C
:1034600019460B4BD3E90023FCF710FF02460B462D
:103470000749C1E90023B7F90A30FA68D31AFB609B
:1034800000F0FCFE7862FB680133FB60B5E700BF2B
:1034900060040020000000000004D04080B483B02D
:1034A00000AF7860FEE7000080B586B000AF7860BE
:1034B0003C211D4803F02AFA01237B6100F0DEFE67
:1034C000F86000F0DBFE0246FB68D31A0A2BF8D93D
:1034D000154B1B685B6ABB60BB68B3F5FA4F06DD32
:1034E00001237B61BB68C3F580333B6104E04FF08F
:1034F000FF337B61BB683B617B69012B06D10B4BC2
:103500001A683B69D31A094A136005E0074B1A6829
:103510003B691344054A1360034B1B6800225A623F
:1035200000F0ACFEF860CCE7E00200204804002088
:1035300080B586B000AF78603C211D4803F0E6F905
:1035400001237B6100F09AFEF86000F097FE0246CE
:10355000FB68D31A0A2BF8D9154B1B685B6ABB6052
:10356000BB68B3F5FA4F06DD01237B61BB68C3F589
:1035700080333B6104E04FF0FF337B61BB683B610C
:103580007B69012B06D10B4B1A683B691344094A2E
:10359000136005E0074B1A683B69D31A054A1360AC
:1035A000034B1B6800225A6200F068FEF860CCE70B
:1035B000980200204C04002080B400AF72B600BF17
:1035C000FEE7000080B582B000AF00237B60164BA1
:1035D0005B6C154A43F480435364134B5B6C03F4F8
:1035E00080437B607B6800233B600F4B1B6C0E4A63
:1035F00043F0805313640C4B1B6C03F080533B600F
:103600003B6800220F216FF0010000F042FF002212
:103610000521052000F03DFF052000F056FF00BF0A
:103620000837BD4680BD00BF0038024080B58AB073
:1036300000AF786007F1140300221A605A609A60A4
:10364000DA601A617B681B68194A93422CD1002307
:103650003B61184B1B6B174A43F002031363154B76
:103660001B6B03F002033B613B694FF440737B61CA
:103670001223BB610023FB6103233B6204237B62B3
:1036800007F1140319460C4800F0CCFF0023FB603F
:10369000084B1B6C074A43F400131364054B1B6C67
:1036A00003F40013FB60FB6800BF2837BD4680BDF4
:1036B00000540040003802400004024080B58AB047
:1036C00000AF786007F1140300221A605A609A6014
:1036D000DA601A617B681B682F4A93421ED100236F
:1036E0003B612E4B5B6C2D4A43F0010353642B4B23
:1036F0005B6C03F001033B613B690022052118204C
:1037000000F0C7FE182000F0E0FE0022052119207D
:1037100000F0BFFE192000F0D8FE38E07B681B687F
:103720001F4A934233D10023FB601C4B5B6C1B4A46
:1037300043F002035364194B5B6C03F00203FB601C
:10374000FB680023BB60154B1B6B144A43F004035A
:103750001363124B1B6B03F00403BB60BB68C023F5
:103760007B610223BB610023FB6100233B620323D7
:103770007B6207F1140319460A4800F053FF002248
:1037800005212D2000F085FE2D2000F09EFE00BFBB
:103790002837BD4680BD00BF000001400038024010
:1037A000000401400008024080B58CB000AF786092
:1037B00007F11C0300221A605A609A60DA601A61ED
:1037C0007B681B68B3F1804F4BD10023BB613F4B3B
:1037D0001B6C3E4A43F0010313643C4B1B6C03F02B
:1037E0000103BB61BB6900237B61384B1B6B374A0C
:1037F00043F001031363354B1B6B03F001037B6143
:103800007B6900233B61314B1B6B304A43F0020361
:1038100013632E4B1B6B03F002033B613B694FF4B8
:103820000043FB6102233B6200237B620023BB62F7
:103830000123FB6207F11C031946254800F0F2FE44
:103840000823FB6102233B6200237B620023BB62EF
:103850000123FB6207F11C0319461E4800F0E2FE3B
:1038600030E07B681B681C4A93422BD10023FB602D
:10387000164B1B6C154A43F002031364134B1B6C6D
:1038800003F00203FB60FB680023BB600F4B1B6B64
:103890000E4A43F0010313630C4B1B6B03F001034F
:1038A000BB60BB68C023FB6102233B6200237B62D9
:1038B0000023BB620223FB6207F11C031946044884
:1038C00000F0B0FE00BF3037BD4680BD003802407A
:1038D00000000240000402400004004080B58AB0AD
:1038E00000AF786007F1140300221A605A609A60F2
:1038F000DA601A617B681B681D4A934234D1002349
:103900003B611C4B1B6C1B4A43F004031364194BB3
:103910001B6C03F004033B613B690023FB60154B08
:103920001B6B144A43F008031363124B1B6B03F029
:103930000803FB60FB684FF480537B610223BB618B
:103940000023FB6100233B6202237B6207F1140327
:103950001946094800F066FE002205211E2000F0ED
:1039600098FD1E2000F0B1FD00BF2837BD4680BD88
:103970000008004000380240000C024080B588B0CA
:1039800000AF786007F10C0300221A605A609A6059
:10399000DA601A617B681B68124A93421ED10023C9
:1039A000BB60114B1B6B104A43F0100313630E4BAB
:1039B0001B6B03F01003BB60BB684FF48043FB60DC
:1039C00002233B6100237B610023BB610123FB6178
:1039D00007F10C031946054800F024FE00BF20370C
:1039E000BD4680BD0000014000380240001002408A
:1039F00080B58AB000AF786007F1140300221A6026
:103A00005A609A60DA601A617B681B681D4A9342AB
:103A100034D100233B611C4B1B6C1B4A43F48023B5
:103A20001364194B1B6C03F480233B613B69002337
:103A3000FB60154B1B6B144A43F004031363124BDA
:103A40001B6B03F00403FB60FB684FF440637B6176
:103A50000223BB610023FB6103233B6207237B62DC
:103A600007F114031946094800F0DCFD0022052186
:103A7000272000F00EFD272000F027FD00BF28378B
:103A8000BD4680BD004800400038024000080240AA
:103A900080B400AFFEE780B400AFFEE780B400AFB3
:103AA000FEE780B400AFFEE780B400AFFEE780B46D
:103AB00000AF00BFBD465DF8047B704780B500AF26
:103AC00000F0C8FB06F026FE0346012B01D007F0EC
:103AD0000BFC00BF80BD80B400AF00BFBD465DF8E9
:103AE000047B704780B500AF024802F09DFF00BF25
:103AF00080BD00BF5002002080B500AF024802F038
:103B000093FF00BF80BD00BF5002002080B500AF12
:103B1000024802F089FF00BF80BD00BF28030020DB
:103B200080B500AF024804F045F900BF80BD00BF7A
:103B3000B803002080B500AF024802F075FF00BF57
:103B400080BD00BF7003002080B400AF0123184681
:103B5000BD465DF8047B704780B582B000AF7860E9
:103B6000396008F05DFC034616221A604FF0FF33FF
:103B700018460837BD4680BD80B582B000AF78607A
:103B80004FF0FF317868FFF7E7FFFEE780B586B0BA
:103B900000AFF860B9607A6000237B610AE0AFF3A0
:103BA00000800146BB685A1CBA60CAB21A707B69B1
:103BB00001337B617A697B689A42F0DB7B68184647
:103BC0001837BD4680BD80B586B000AFF860B960DB
:103BD0007A6000237B6109E0BB685A1CBA601B78DD
:103BE0001846AFF300807B6901337B617A697B689B
:103BF0009A42F1DB7B6818461837BD4680BD80B419
:103C000083B000AF78604FF0FF3318460C37BD46E5
:103C10005DF8047B704780B483B000AF7860396092
:103C20003B684FF400525A60002318460C37BD46DB
:103C30005DF8047B704780B483B000AF78600123E7
:103C400018460C37BD465DF8047B704780B485B0DC
:103C500000AFF860B9607A60002318461437BD469B
:103C60005DF8047B7047000080B586B000AF7860D7
:103C7000144A154BD31A7B617B693B61134B1B685C
:103C8000002B02D1114B124A1A60104B1A687B6844
:103C900013443A699A4207D208F0C2FB03460C2249
:103CA0001A604FF0FF3309E0084B1B68FB60074BBD
:103CB0001A687B681344054A1360FB681846183776
:103CC000BD4680BD000002200004000094040020D6
:103CD000D053002080B400AF064BD3F88830054A9B
:103CE00043F47003C2F8883000BFBD465DF8047B22
:103CF000704700BF00ED00E0DFF834D00D480E49FA
:103D00000E4A002302E0D458C4500433C4188C4235
:103D1000F9D30B4A0B4C002301E013600432A2429A
:103D2000FBD3FFF7D7FF08F081FBFDF7F1F87047F1
:103D30000000022000000020DC0100205CF50008EB
:103D4000E0010020D0530020FEE7000080B582B0E3
:103D500000AF0023FB7126E0FB79503BDBB2002172
:103D6000184600F02BF80021002000F027F8002171
:103D7000102000F023F80023BB710DE0BA79FB7925
:103D80000D49D2000A4413441B780121184600F063
:103D900015F8BB790133BB7197F90630002BEDDACA
:103DA000FB790133FB71FB79072BD5D900BF00BF2D
:103DB0000837BD4680BD00BF9804002080B584B0A0
:103DC00000AF03460A46FB711346BB71BB79002B5B
:103DD00006D001224FF480711C4800F0BFFD05E0C1
:103DE00000224FF48071194800F0B8FD0023FB73E6
:103DF0001EE000222021154800F0B0FD97F90730A1
:103E0000002B05DA01224021104800F0A7FD04E054
:103E1000002240210D4800F0A1FD012220210B4885
:103E200000F09CFDFB795B00FB71FB7B0133FB73B6
:103E3000FB7B072BDDD901224FF48071034800F092
:103E40008DFD00BF1037BD4680BD00BF0010024091
:103E500080B582B000AF0023FB7114E00023BB717A
:103E60000AE0BA79FB790C49D2000A4413440022D3
:103E70001A70BB790133BB7197F90630002BF0DA69
:103E8000FB790133FB71FB79072BE7D9FFF75EFF65
:103E900000BF0837BD4680BD9804002080B485B0BF
:103EA00000AF0346FB710B46BB7113467B710023C9
:103EB000FB7397F90730002B41DBBB793F2B3ED8D2
:103EC000BB79DB08DBB2C3F10703BB73BB7903F03B
:103ED00007037B737B7BC3F10703012202FA03F321
:103EE000FB737B79002B12D0FA79BB7B1749D20088
:103EF0000A4413441878FA79BB7BF97B0143C8B2B2
:103F00001249D2000A44134402461A7018E0FA79A2
:103F1000BB7B0E49D2000A4413441B785AB297F96E
:103F20000F30DB435BB2134059B2FA79BB7BC8B2A6
:103F30000649D2000A44134402461A7000E000BF4A
:103F40001437BD465DF8047B704700BF980400201D
:103F500090B585B000AF0446084611461A46234680
:103F6000FB710346BB710B467B7113463B71BB79FA
:103F70003B737B79203B7B710023BB734DE03B7926
:103F80000C2B0BD17A79B97B284813465B0013447C
:103F90009B0003440B441B78FB7307E07A79BB7BDF
:103FA000234912010A4413441B78FB7300237B73DB
:103FB0002DE097F90F30002B07DA97F82020B97918
:103FC000FB791846FFF76AFF0CE097F82030002BCA
:103FD0000CBF01230023DBB21A46B979FB791846DE
:103FE000FFF75CFFFB7B5B00FB73BB790133BB71AD
:103FF000BA793B7BD21A3B799A4205D13B7BBB71A4
:10400000FB790133FB7105E07B7B01337B737B7BA9
:10401000072BCED9BB7B0133BB73BA7B3B799A426A
:10402000ADD300BF00BF1437BD4690BD78E7000890
:10403000ECEB000880B584B002AF03463A60FB7138
:104040000B46BB711FE0FB797A2B04D90023FB716F
:10405000BB791033BB71BB793A2B05D90023FB71B7
:10406000FB79BB71FFF7F4FE3B681A78B979F879F0
:10407000012300930C23FFF76BFFFB790833FB71DF
:104080003B6801333B603B681B78002BDBD100BFF2
:1040900000BF0837BD4680BD80B500AF01F028FCE9
:1040A000414B1B6F404A23F0010313673E4B1B6FCC
:1040B0003D4A23F00403136701F02EFC0022802107
:1040C0003A4800F04BFC642000F0E4F80122802123
:1040D000364800F043FC0021AE20FFF76FFE0021C0
:1040E000D520FFF76BFE00215020FFF767FE00216F
:1040F000A820FFF763FE00213F20FFF75FFE0021AD
:10410000D320FFF75BFE00210020FFF757FE0021C0
:104110004020FFF753FE00218D20FFF74FFE0021C6
:104120001420FFF74BFE00212020FFF747FE00215F
:104130000220FFF743FE0021A120FFF73FFE0021F0
:10414000C020FFF73BFE0021DA20FFF737FE0021F9
:104150001220FFF733FE00218120FFF72FFE002100
:10416000EF20FFF72BFE0021D920FFF727FE0021CB
:10417000F120FFF723FE0021DB20FFF71FFE0021C7
:104180003020FFF71BFE0021A420FFF717FE0021BF
:10419000A620FFF713FE0021AF20FFF70FFEFFF769
:1041A00057FE00BF80BD00BF003802400010024033
:1041B00080B500AF0E4B1B680D4A43F400731360CB
:1041C0000B4B1B680A4A43F480631360084B1B685F
:1041D000074A43F480731360032000F04FF90F2067
:1041E00000F008F8FFF7EEF90023184680BD00BF85
:1041F000003C024080B582B000AF7860124B1A6874
:10420000124B1B7819464FF47A73B3FBF1F3B2FBF0
:10421000F3F3184600F067F90346002B01D00123A1
:104220000EE07B680F2B0AD8002279684FF0FF3030
:1042300000F02FF9064A7B681360002300E0012399
:1042400018460837BD4680BD040000200C00002041
:104250000800002080B400AF064B1B781A46064BBE
:104260001B681344044A136000BFBD465DF8047B1D
:10427000704700BF0C0000209808002080B400AFF9
:10428000034B1B681846BD465DF8047B704700BFB2
:104290009808002080B584B000AF7860FFF7EEFF8B
:1042A000B8607B68FB60FB68B3F1FF3F05D00A4B49
:1042B0001B781A46FB681344FB6000BFFFF7DEFF64
:1042C0000246BB68D31AFA689A42F7D800BF00BF0B
:1042D0001037BD4680BD00BF0C00002080B485B003
:1042E00000AF78607B6803F00703FB600C4BDB6872
:1042F000BB60BA684FF6FF031340BB60FB681A024D
:10430000BB68134343F0BF6343F40033BB60044A0C
:10431000BB68D36000BF1437BD465DF8047B7047AF
:1043200000ED00E080B400AF044BDB681B0A03F033
:1043300007031846BD465DF8047B704700ED00E0BA
:1043400080B483B000AF0346FB7197F90730002BB0
:104350000BDBFB7903F01F02074997F907305B0974
:10436000012000FA02F241F8232000BF0C37BD46BD
:104370005DF8047B704700BF00E100E080B483B0CB
:1043800000AF03463960FB7197F90730002B0ADB59
:104390003B68DAB20C4997F907301201D2B20B44EC
:1043A00083F800230AE03B68DAB20849FB7903F09E
:1043B0000F03043B1201D2B20B441A7600BF0C3734
:1043C000BD465DF8047B704700E100E000ED00E0D1
:1043D00080B489B000AFF860B9607A60FB6803F020
:1043E0000703FB61FB69C3F10703042B28BF042308
:1043F000BB61FB690433062B02D9FB69033B00E078
:1044000000237B614FF0FF32BB6902FA03F3DA430A
:10441000BB681A407B699A404FF0FF317B6901FA13
:1044200003F3D9437B680B40134318462437BD463A
:104430005DF8047B7047000080B582B000AF786003
:104440007B68013BB3F1807F01D301230FE00A4A6F
:104450007B68013B53600F214FF0FF30FFF78EFF69
:10446000054B00229A60044B07221A60002318466D
:104470000837BD4680BD00BF10E000E080B582B0C7
:1044800000AF78607868FFF729FF00BF0837BD46A6
:1044900080BD80B586B000AF0346B9607A60FB731B
:1044A00000237B61FFF73EFF78617A68B96878691D
:1044B000FFF78EFF024697F90F3011461846FFF7B7
:1044C0005DFF00BF1837BD4680BD80B582B000AF2C
:1044D0000346FB7197F907301846FFF731FF00BF1D
:1044E0000837BD4680BD80B582B000AF786078687F
:1044F000FFF7A2FF034618460837BD4680BD80B5CA
:1045000084B000AF78607B689B6DFB60FFF7B6FE00
:10451000B8607B6893F83530DBB2022B08D07B683B
:1045200080225A657B68002283F83420012352E000
:104530007B681B681A687B681B6822F016021A6089
:104540007B681B685A697B681B6822F080025A618D
:104550007B681B6C002B03D17B689B6C002B07D006
:104560007B681B681A687B681B6822F008021A6067
:104570007B681B681A687B681B6822F001021A605E
:1045800013E0FFF77BFE0246BB68D31A052B0CD95C
:104590007B6820225A657B68032283F835207B687C
:1045A000002283F83420032315E07B681B681B6816
:1045B00003F00103002BE4D17B68DB6D3F229A40BE
:1045C000FB689A607B68012283F835207B680022B3
:1045D00083F83420002318461037BD4680BD80B4D0
:1045E00083B000AF78607B6893F83530DBB2022B84
:1045F00004D07B6880225A6501230CE07B68052289
:1046000083F835207B681B681A687B681B6822F07A
:1046100001021A60002318460C37BD465DF8047B82
:104620007047000080B489B000AF78603960002323
:104630007B6100233B610023BB610023FB616BE1D5
:104640000122FB6902FA03F37B613B681B687A690C
:1046500013403B613A697B699A4240F05A813B685A
:104660005B6803F00303012B05D03B685B6803F034
:104670000303022B30D17B689B68BB61FB695B0045
:10468000032202FA03F3DB43BA691340BB613B68C0
:10469000DA68FB695B0002FA03F3BA691343BB6192
:1046A0007B68BA699A607B685B68BB610122FB69C1
:1046B00002FA03F3DB43BA691340BB613B685B68F2
:1046C0001B0903F00102FB6902FA03F3BA69134301
:1046D000BB617B68BA695A603B685B6803F003039F
:1046E000032B17D07B68DB68BB61FB695B0003228F
:1046F00002FA03F3DB43BA691340BB613B689A6873
:10470000FB695B0002FA03F3BA691343BB617B6880
:10471000BA69DA603B685B6803F00303022B23D1BC
:10472000FB69DA087B68083253F82230BB61FB6909
:1047300003F007039B000F2202FA03F3DB43BA697D
:104740001340BB613B681A69FB6903F007039B00D8
:1047500002FA03F3BA691343BB61FB69DA087B68A9
:104760000832B96943F822107B681B68BB61FB699A
:104770005B00032202FA03F3DB43BA691340BB6117
:104780003B685B6803F00302FB695B0002FA03F31A
:10479000BA691343BB617B68BA691A603B685B689E
:1047A00003F44033002B00F0B4800023FB60604B27
:1047B0005B6C5F4A43F4804353645D4B5B6C03F472
:1047C0008043FB60FB685B4AFB699B08023352F83D
:1047D0002330BB61FB6903F003039B000F2202FA45
:1047E00003F3DB43BA691340BB617B68524A9342CF
:1047F0002BD07B68514A934225D07B68504A934224
:104800001FD07B684F4A934219D07B684E4A93422F
:1048100013D07B684D4A93420DD07B684C4A93423B
:1048200007D07B684B4A934201D107230EE008234F
:104830000CE006230AE0052308E0042306E0032336
:1048400004E0022302E0012300E00023FA6902F001
:10485000030292009340BA691343BB613549FB6977
:104860009B080233BA6941F823203B4B9B68BB612C
:104870003B69DB43BA691340BB613B685B6803F487
:104880008013002B03D0BA693B691343BB61324AE2
:10489000BB699360304BDB68BB613B69DB43BA6942
:1048A0001340BB613B685B6803F40013002B03D02B
:1048B000BA693B691343BB61274ABB69D360264B86
:1048C0005B68BB613B69DB43BA691340BB613B6812
:1048D0005B6803F40033002B03D0BA693B691343D0
:1048E000BB611D4ABB6953601B4B1B68BB613B69C5
:1048F000DB43BA691340BB613B685B6803F48033F8
:10490000002B03D0BA693B691343BB61124ABB69F0
:104910001360FB690133FB61FB690F2B7FF690AEDF
:1049200000BF00BF2437BD465DF8047B704700BF61
:1049300000380240003801400000024000040240FC
:1049400000080240000C0240001002400014024027
:1049500000180240001C0240003C014080B483B0BB
:1049600000AF78600B467B8013467B707B78002B12
:1049700003D07A887B689A6103E07B881A047B689D
:104980009A6100BF0C37BD465DF8047B704780B468
:1049900085B000AF78600B467B807B685B69FB600D
:1049A0007A88FB6813401A04FB68D9437B880B4064
:1049B0001A437B689A6100BF1437BD465DF8047BDB
:1049C0007047000080B584B000AF78607B68002B32
:1049D00001D101232BE17B6893F83D30DBB2002B42
:1049E00006D17B68002283F83C207868FEF71EFE23
:1049F0007B68242283F83D207B681B681A687B68EB
:104A00001B6822F001021A607B681B681A687B68C9
:104A10001B6842F400421A607B681B681A687B6856
:104A20001B6822F400421A6001F0BAFBF8607B6850
:104A30005B68814A934207D8FB68804A934294BFDF
:104A400001230023DBB206E0FB687D4A934294BF5A
:104A500001230023DBB2002B01D00123E7E0FB6838
:104A6000784AA2FB03239B0CBB607B681B685B68D6
:104A700023F03F017B681B68BA680A435A607B6871
:104A80001B681B6A23F03F017B685B686A4A93429C
:104A900002D8BB68013309E0BB684FF4967202FB91
:104AA00003F3694AA2FB03239B0901337A68126866
:104AB0000B4313627B681B68DB6923F44F4222F0CF
:104AC000FF027B685B685C498B4219D8FB68591E02
:104AD0007B685B685B00B1FBF3F3591C40F6FC7329
:104AE0000B40002B0AD0FB68591E7B685B685B009B
:104AF000B1FBF3F30133C3F30B0351E004234FE0A5
:104B00007B689B68002B11D1FB68581E7B68596835
:104B10000B465B000B44B0FBF3F30133C3F30B0311
:104B2000002B0CBF01230023DBB212E0FB68581EF0
:104B30007B6859680B469B000B4499000B44B0FB03
:104B4000F3F30133C3F30B03002B0CBF012300234A
:104B5000DBB2002B01D0012322E07B689B68002B95
:104B60000ED1FB68581E7B6859680B465B000B44EE
:104B7000B0FBF3F30133C3F30B0343F400430FE043
:104B8000FB68581E7B6859680B469B000B449900D4
:104B90000B44B0FBF3F30133C3F30B0343F4404383
:104BA000796809681343CB617B681B681B6823F035
:104BB000C0017B68DA697B681B6A1A437B681B68E3
:104BC0000A431A607B681B689B6823F4034323F045
:104BD000FF037A6811697A68D26811437A681268AB
:104BE0000B4393607B681B68DB6823F0FF017B68E5
:104BF0005A697B689B691A437B681B680A43DA60C1
:104C00007B681B681A687B681B6842F001021A60A7
:104C10007B6800221A647B68202283F83D207B6831
:104C200000221A637B68002283F83E200023184686
:104C30001037BD4680BD00BFA08601007F841E00E6
:104C4000FF083D0083DE1B43D34D621080B588B062
:104C500002AFF8607A601A460B467B8113463B81AF
:104C6000FFF70CFB7861FB6893F83D30DBB2202B3B
:104C700040F0E0807B690093192301227049F868B5
:104C800000F058FC0346002B01D00223D3E0FB6860
:104C900093F83C30012B01D10223CCE0FB680122C8
:104CA00083F83C20FB681B681B6803F00103012BA1
:104CB00007D0FB681B681A68FB681B6842F001029A
:104CC0001A60FB681B681A68FB681B6822F40062A4
:104CD0001A60FB68212283F83D20FB68102283F8CC
:104CE0003E20FB6800221A64FB687A685A62FB68FF
:104CF0003A895A85FB685B8D9AB2FB681A85FB6816
:104D0000504ADA6279897B693A6AF86800F0C2FA37
:104D10000346002B01D001238DE000233B61FB689B
:104D20001B685B693B61FB681B689B693B613B6976
:104D300066E07A69396AF86800F0D2FC0346002B15
:104D40000DD0FB681B6C042B07D1FB681B681A682D
:104D5000FB681B6842F400721A6001236BE0FB6879
:104D60005B6A1A78FB681B681A61FB685B6A5A1CED
:104D7000FB685A62FB685B8D9BB2013B9AB2FB6891
:104D80005A85FB681B8D013B9AB2FB681A85FB684C
:104D90001B685B6903F00403042B1BD1FB681B8DAC
:104DA000002B17D0FB685B6A1A78FB681B681A61D6
:104DB000FB685B6A5A1CFB685A62FB685B8D9BB29E
:104DC000013B9AB2FB685A85FB681B8D013B9AB286
:104DD000FB681A857A69396AF86800F0C2FC0346F4
:104DE000002B0DD0FB681B6C042B07D1FB681B68E4
:104DF0001A68FB681B6842F400721A6001231AE00B
:104E0000FB681B8D002B94D1FB681B681A68FB683C
:104E10001B6842F400721A60FB68202283F83D2070
:104E2000FB68002283F83E20FB68002283F83C20C8
:104E3000002300E0022318461837BD4680BD00BF9E
:104E4000020010000000FFFF80B58CB002AFF860D8
:104E50007A601A460B467B8113463B81FFF70EFAB8
:104E60007862FB6893F83D30DBB2202B40F00B8278
:104E70007B6A0093192301227C49F86800F05AFBF1
:104E80000346002B01D00223FEE1FB6893F83C307F
:104E9000012B01D10223F7E1FB68012283F83C20BA
:104EA000FB681B681B6803F00103012B07D0FB683C
:104EB0001B681A68FB681B6842F001021A60FB68F5
:104EC0001B681A68FB681B6822F400621A60FB68A2
:104ED000222283F83D20FB68102283F83E20FB68E5
:104EE00000221A64FB687A685A62FB683A895A851C
:104EF000FB685B8D9AB2FB681A85FB685C4ADA62D4
:104F000079897B6A3A6BF86800F046FA0346002B11
:104F100001D00123B8E1FB681B8D002B13D10023C6
:104F20003B62FB681B685B693B62FB681B689B69B3
:104F30003B623B6AFB681B681A68FB681B6842F4AB
:104F400000721A608CE1FB681B8D012B1BD1FB6882
:104F50001B681A68FB681B6822F480621A600023D1
:104F6000FB61FB681B685B69FB61FB681B689B69F5
:104F7000FB61FB69FB681B681A68FB681B6842F4ED
:104F800000721A606CE1FB681B8D022B1BD1FB6861
:104F90001B681A68FB681B6822F480621A60FB6851
:104FA0001B681A68FB681B6842F400621A600023E1
:104FB000BB61FB681B685B69BB61FB681B689B6925
:104FC000BB61BB694CE1FB681B681A68FB681B6826
:104FD00042F480621A6000237B61FB681B685B6996
:104FE0007B61FB681B689B697B617B6938E1FB68BF
:104FF0001B8D032B00F2F180FB681B8D012B23D14D
:105000007A6A396BF86800F0EDFB0346002B01D09B
:10501000012339E1FB681B681A69FB685B6AD2B23D
:105020001A70FB685B6A5A1CFB685A62FB681B8D2E
:10503000013B9AB2FB681A85FB685B8D9BB2013B12
:105040009AB2FB685A850BE1FB681B8D022B4ED18F
:105050007B6A00933B6B00220649F86800F06AFA0D
:105060000346002B08D001230EE100BF0200100010
:105070000000FFFF04000100FB681B681A68FB6862
:105080001B6842F400721A60FB681B681A69FB68AF
:105090005B6AD2B21A70FB685B6A5A1CFB685A6280
:1050A000FB681B8D013B9AB2FB681A85FB685B8D20
:1050B0009BB2013B9AB2FB685A85FB681B681A6970
:1050C000FB685B6AD2B21A70FB685B6A5A1CFB68A9
:1050D0005A62FB681B8D013B9AB2FB681A85FB681C
:1050E0005B8D9BB2013B9AB2FB685A85B8E07B6A44
:1050F00000933B6B00226649F86800F01BFA0346F8
:10510000002B01D00123BFE0FB681B681A68FB6815
:105110001B6822F480621A60FB681B681A69FB68CE
:105120005B6AD2B21A70FB685B6A5A1CFB685A62EF
:10513000FB681B8D013B9AB2FB681A85FB685B8D8F
:105140009BB2013B9AB2FB685A857B6A00933B6B2A
:1051500000224F49F86800F0EDF90346002B01D01A
:10516000012391E0FB681B681A68FB681B6842F426
:1051700000721A60FB681B681A69FB685B6AD2B22E
:105180001A70FB685B6A5A1CFB685A62FB681B8DCD
:10519000013B9AB2FB681A85FB685B8D9BB2013BB1
:1051A0009AB2FB685A85FB681B681A69FB685B6AE0
:1051B000D2B21A70FB685B6A5A1CFB685A62FB68C1
:1051C0001B8D013B9AB2FB681A85FB685B8D9BB215
:1051D000013B9AB2FB685A8542E07A6A396BF868FB
:1051E00000F000FB0346002B01D001234CE0FB68DC
:1051F0001B681A69FB685B6AD2B21A70FB685B6A4B
:105200005A1CFB685A62FB681B8D013B9AB2FB6813
:105210001A85FB685B8D9BB2013B9AB2FB685A858D
:10522000FB681B685B6903F00403042B18D1FB685F
:105230001B681A69FB685B6AD2B21A70FB685B6A0A
:105240005A1CFB685A62FB681B8D013B9AB2FB68D3
:105250001A85FB685B8D9BB2013B9AB2FB685A854D
:10526000FB681B8D002B7FF4C2AEFB68202283F805
:105270003D20FB68002283F83E20FB68002283F873
:105280003C20002300E0022318462837BD4680BD9D
:105290000400010080B588B002AFF8607A603B601E
:1052A0000B467B81FB68DB6A7B617B69082B06D040
:1052B0007B69012B03D07B6913F5803F08D1FB6824
:1052C0001B681A68FB681B6842F480721A600BE066
:1052D000FB681B6B122B07D1FB681B681A68FB6805
:1052E0001B6842F480721A603B6800937B6800225E
:1052F0004FF00111F86800F01DF90346002B0DD0A6
:10530000FB681B681B6803F48073B3F5807F03D1CF
:10531000FB684FF400721A64032335E0FB681B69D5
:10532000B3F5804F08D17B89DBB21A46FB681B6856
:1053300002F0FE021A611BE07B89DB11DBB203F095
:105340000603DBB263F00F03DAB2FB681B681A6175
:105350003B687A680E49F86800F043F90346002B71
:1053600001D0012310E07B89DAB2FB681B681A6167
:105370003B687A680749F86800F033F90346002B68
:1053800001D0012300E0002318461837BD4680BD38
:10539000080001000200010080B588B002AFF8608B
:1053A0007A603B600B467B81FB68DB6A7B61FB6854
:1053B0001B681A68FB681B6842F480621A607B698C
:1053C000082B06D07B69012B03D07B6913F5803F46
:1053D00008D1FB681B681A68FB681B6842F480727E
:1053E0001A600BE0FB681B6B112B07D1FB681B6875
:1053F0001A68FB681B6842F480721A603B6800936D
:105400007B6800224FF00111F86800F093F8034622
:10541000002B0DD0FB681B681B6803F48073B3F589
:10542000807F03D1FB684FF400721A64032379E094
:10543000FB681B69B3F5804F08D17B89DBB243F071
:105440000103DAB2FB681B681A615FE07B89DB113C
:10545000DBB203F00603DBB263F00F03DAB2FB68E2
:105460001B681A613B687A683049F86800F0B9F83F
:105470000346002B01D0012354E07B89DAB2FB689C
:105480001B681A613B687A682949F86800F0A9F836
:105490000346002B01D0012344E000233B61FB685D
:1054A0001B685B693B61FB681B689B693B613B69EF
:1054B000FB681B681A68FB681B6842F480721A60FC
:1054C0003B6800937B6800224FF00111F86800F000
:1054D00031F80346002B0DD0FB681B681B6803F4F2
:1054E0008073B3F5807F03D1FB684FF400721A64B8
:1054F000032317E07B89DB11DBB203F00603DBB289
:1055000063F00E03DAB2FB681B681A613B687A68C5
:105510000749F86800F065F80346002B01D0012325
:1055200000E0002318461837BD4680BD0800010082
:105530000200010080B584B000AFF860B9603B6044
:105540001346FB7125E03B68B3F1FF3F21D0FEF726
:1055500095FE0246BB69D31A3A689A4202D33B6869
:10556000002B16D1FB6800221A63FB68202283F807
:105570003D20FB68002283F83E20FB681B6C43F053
:105580002002FB681A64FB68002283F83C20012398
:1055900023E0BB681B0CDBB2012B0DD1FB681B6841
:1055A0005B69DA43BB6813409BB2002B0CBF01233D
:1055B0000023DBB21A460CE0FB681B689B69DA43E8
:1055C000BB6813409BB2002B0CBF01230023DBB24E
:1055D0001A46FB799A42B6D0002318461037BD46CA
:1055E00080BD80B584B000AFF860B9607A603B6080
:1055F00051E0FB681B685B6903F48063B3F5806F5F
:1056000023D1FB681B681A68FB681B6842F40072B0
:105610001A60FB681B686FF480625A61FB680022A5
:105620001A63FB68202283F83D20FB68002283F880
:105630003E20FB681B6C43F00402FB681A64FB68A5
:10564000002283F83C20012346E07B68B3F1FF3F52
:1056500021D0FEF713FE02463B68D31A7A689A42BD
:1056600002D37B68002B16D1FB6800221A63FB680B
:10567000202283F83D20FB68002283F83E20FB684F
:105680001B6C43F02002FB681A64FB68002283F85D
:105690003C20012320E0BB681B0CDBB2012B0CD1AA
:1056A000FB681B685B69DA43BB6813409BB2002B45
:1056B00014BF01230023DBB20BE0FB681B689B696E
:1056C000DA43BB6813409BB2002B14BF01230023B5
:1056D000DBB2002B8DD1002318461037BD4680BDAC
:1056E00080B584B000AFF860B9607A602DE0F868EA
:1056F00000F0CEF80346002B01D001232DE0BB685B
:10570000B3F1FF3F21D0FEF7B9FD02467B68D31A03
:10571000BA689A4202D3BB68002B16D1FB680022FC
:105720001A63FB68202283F83D20FB68002283F87F
:105730003E20FB681B6C43F02002FB681A64FB6888
:10574000002283F83C20012307E0FB681B685B69AB
:1057500003F08003802BCAD1002318461037BD46C2
:1057600080BD80B584B000AFF860B9607A602DE08C
:10577000F86800F08DF80346002B01D001232DE0DE
:10578000BB68B3F1FF3F21D0FEF778FD02467B688E
:10579000D31ABA689A4202D3BB68002B16D1FB68B1
:1057A00000221A63FB68202283F83D20FB68002258
:1057B00083F83E20FB681B6C43F02002FB681A64F0
:1057C000FB68002283F83C20012307E0FB681B688C
:1057D0005B6903F00403042BCAD100231846103779
:1057E000BD4680BD80B584B000AFF860B9607A6016
:1057F00042E0FB681B685B6903F01003102B19D1B2
:10580000FB681B686FF010025A61FB6800221A6384
:10581000FB68202283F83D20FB68002283F83E20AD
:10582000FB681A6CFB681A64FB68002283F83C2052
:10583000012329E0FEF722FD02467B68D31ABA68ED
:105840009A4202D3BB68002B16D1FB6800221A6370
:10585000FB68202283F83D20FB68002283F83E206D
:10586000FB681B6C43F02002FB681A64FB68002293
:1058700083F83C20012307E0FB681B685B6903F0A9
:105880004003402BB5D1002318461037BD4680BDDC
:1058900080B483B000AF78607B681B685B6903F4F9
:1058A0008063B3F5806F1BD17B681B686FF48062E7
:1058B0005A617B6800221A637B68202283F83D20AE
:1058C0007B68002283F83E207B681B6C43F0040257
:1058D0007B681A647B68002283F83C20012300E087
:1058E000002318460C37BD465DF8047B7047000066
:1058F00080B483B000AF064B01221A60054B1B68D1
:105900007B607B6800BF0C37BD465DF8047B704749
:1059100020000E420070004080B483B000AF064B00
:1059200000221A60054B1B687B607B6800BF0C3748
:10593000BD465DF8047B704720000E4200700040B9
:1059400080B586B000AF78607B68002B01D1012361
:1059500067E27B681B6803F00103002B75D0884B5E
:105960009B6803F00C03042B0CD0854B9B6803F061
:105970000C03082B12D1824B5B6803F48003B3F550
:10598000800F0BD17E4B1B6803F40033002B5BD0E0
:105990007B685B68002B57D1012342E27B685B6820
:1059A000B3F5803F06D1764B1B68754A43F48033CC
:1059B00013601DE07B685B68B3F5A02F0CD1704BC2
:1059C0001B686F4A43F4802313606D4B1B686C4A5D
:1059D00043F4803313600BE0694B1B68684A23F47F
:1059E00080331360664B1B68654A23F48023136081
:1059F0007B685B68002B13D0FEF740FC386108E041
:105A0000FEF73CFC02463B69D31A642B01D9032301
:105A100007E25B4B1B6803F40033002BF0D014E06B
:105A2000FEF72CFC386108E0FEF728FC02463B69D3
:105A3000D31A642B01D90323F3E1514B1B6803F400
:105A40000033002BF0D100E000BF7B681B6803F03F
:105A50000203002B63D04A4B9B6803F00C03002B1E
:105A60000BD0474B9B6803F00C03082B1CD1444B15
:105A70005B6803F48003002B16D1414B1B6803F0D5
:105A80000203002B05D07B68DB68012B01D00123CA
:105A9000C7E13B4B1B6823F0F8027B681B69DB0006
:105AA000374913430B603AE07B68DB68002B20D05A
:105AB000344B01221A60FEF7E1FB386108E0FEF783
:105AC000DDFB02463B69D31A022B01D90323A8E16F
:105AD0002B4B1B6803F00203002BF0D0284B1B68F4
