:020000040800F2
:10000000000002207D2D0008CD2C0008CF2C000818
:10001000D12C0008D32C0008D52C000800000000CB
:10002000000000000000000000000000916A0008CD
:10003000D72C000800000000216B0008D92C000814
:10004000CD2D0008CD2D0008CD2D0008CD2D0008A8
:10005000CD2D0008F12C0008CD2D0008CD2D000875
:10006000CD2D0008CD2D0008CD2D0008CD2D000888
:10007000CD2D0008CD2D0008CD2D0008CD2D000878
:10008000CD2D0008CD2D0008CD2D0008CD2D000868
:10009000CD2D0008CD2D0008CD2D0008CD2D000858
:1000A000F52C0008012D0008CD2D0008CD2D0008ED
:1000B000CD2D0008CD2D0008052D0008CD2D000800
:1000C000CD2D0008CD2D0008CD2D0008CD2D000828
:1000D000CD2D0008CD2D0008CD2D0008112D0008D4
:1000E000CD2D0008CD2D0008CD2D0008CD2D000808
:1000F000CD2D00081D2D0008CD2D0008CD2D0008A8
:10010000CD2D0008CD2D0008CD2D0008CD2D0008E7
:10011000CD2D0008CD2D0008CD2D0008CD2D0008D7
:10012000CD2D0008CD2D0008CD2D0008CD2D0008C7
:10013000CD2D0008CD2D0008CD2D0008CD2D0008B7
:10014000CD2D0008CD2D0008CD2D0008CD2D0008A7
:10015000CD2D0008CD2D0008CD2D0008CD2D000897
:10016000CD2D0008CD2D0008CD2D0008CD2D000887
:10017000CD2D0008CD2D0008CD2D00080000000079
:08018000CD2D0008CD2D000873
:1001900010B5054C237833B9044B13B10448AFF3C1
:1001A00000800123237010BD6800002000000000C3
:1001B0003879000808B5034B1BB103490348AFF376
:1001C000008008BD000000006C00002038790008A5
:1001D00001F0FF01102A2BDB10F0070F08D010F8F8
:1001E000013B013A8B422DD010F0070F42B3F6D1FC
:1001F000F0B441EA012141EA014122F007047FF015
:1002000000070023F0E80256083C85EA010586EA6B
:10021000010685FA47F5A3FA87F586FA47F6A5FAA7
:1002200087F68EB9EED1F0BC01F0FF0102F00702B3
:1002300032B110F8013B013A83EA010313B1F8D15E
:100240000020704701387047002D06BF354603383F
:10025000073815F0010F07D1013015F4807F02BF78
:10026000013015F4C03F0130F0BC0138704700BFC9
:1002700081F0004102E000BF83F0004330B54FEA57
:1002800041044FEA430594EA050F08BF90EA020FC4
:100290001FBF54EA000C55EA020C7FEA645C7FEA57
:1002A000655C00F0E2804FEA5454D4EB5555B8BF7A
:1002B0006D420CDD2C4480EA020281EA030382EAEB
:1002C000000083EA010180EA020281EA0303362D7D
:1002D00088BF30BD11F0004F4FEA01314FF4801C50
:1002E0004CEA113102D0404261EB410113F0004F62
:1002F0004FEA03334CEA133302D0524263EB430319
:1003000094EA050F00F0A780A4F10104D5F1200EB6
:100310000DDB02FA0EFC22FA05F2801841F1000111
:1003200003FA0EF2801843FA05F359410EE0A5F1E5
:1003300020050EF1200E012A03FA0EFC28BF4CF016
:10034000020C43FA05F3C01851EBE37101F00045CC
:1003500007D54FF0000EDCF1000C7EEB00006EEBD9
:100360000101B1F5801F1BD3B1F5001F0CD3490863
:100370005FEA30004FEA3C0C04F101044FEA4452BA
:1003800012F5800F80F09A80BCF1004F08BF5FEA41
:10039000500C50F1000041EB045141EA050130BD21
:1003A0005FEA4C0C404141EB0101013C28BFB1F533
:1003B000801FE9D291F0000F04BF01460020B1FA7E
:1003C00081F308BF2033A3F10B03B3F120020CDA51
:1003D0000C3208DD02F1140CC2F10C0201FA0CF02F
:1003E00021FA02F10CE002F11402D8BFC2F1200C94
:1003F00001FA02F120FA0CFCDCBF41EA0C0190404A
:10040000E41AA2BF01EB0451294330BD6FEA040492
:100410001F3C1CDA0C340EDC04F11404C4F120027D
:1004200020FA04F001FA02F340EA030021FA04F38F
:1004300045EA030130BDC4F10C04C4F1200220FAE6
:1004400002F001FA04F340EA0300294630BD21FA24
:1004500004F0294630BD94F0000F83F4801306BFEA
:1004600081F480110134013D4EE77FEA645C18BFDE
:100470007FEA655C29D094EA050F08BF90EA020F75
:1004800005D054EA000C04BF1946104630BD91EA6D
:10049000030F1EBF0021002030BD5FEA545C05D170
:1004A0004000494128BF41F0004130BD14F58004AF
:1004B0003CBF01F5801130BD01F0004545F0FE4123
:1004C00041F470014FF0000030BD7FEA645C1ABF58
:1004D000194610467FEA655C1CBF0B46024650EA8F
:1004E000013406BF52EA033591EA030F41F40021BB
:1004F00030BD00BF90F0000F04BF0021704730B541
:100500004FF4806404F132044FF000054FF0000115
:1005100050E700BF90F0000F04BF0021704730B5D6
:100520004FF4806404F1320410F0004548BF4042AB
:100530004FF000013EE700BF42004FEAE2014FEA00
:1005400031014FEA02701FBF12F07F4393F07F4FDB
:1005500081F06051704732F07F4208BF704793F0DE
:100560007F4F04BF41F40021704730B54FF46074F1
:1005700001F0004521F000411CE700BF50EA0102F4
:1005800008BF704730B54FF000050AE050EA01029D
:1005900008BF704730B511F0004502D5404261EB0D
:1005A00041014FF4806404F132045FEA915C3FF44E
:1005B000D8AE4FF003025FEADC0C18BF03325FEAEB
:1005C000DC0C18BF033202EBDC02C2F1200300FA9C
:1005D00003FC20FA02F001FA03FE40EA0E0021FAC1
:1005E00002F11444BDE600BF70B54FF0FF0C4CF4AF
:1005F000E06C1CEA11541DBF1CEA135594EA0C0F61
:1006000095EA0C0F00F0DEF82C4481EA030621EA9B
:100610004C5123EA4C5350EA013518BF52EA0335D6
:1006200041F4801143F4801338D0A0FB02CE4FF088
:100630000005E1FB02E506F00042E0FB03E54FF0B8
:100640000006E1FB03569CF0000F18BF4EF0010EB0
:10065000A4F1FF04B6F5007F64F5407404D25FEAAC
:100660004E0E6D4146EB060642EAC62141EA55515F
:100670004FEAC52040EA5E504FEACE2EB4F1FD0CA1
:1006800088BFBCF5E06F1ED8BEF1004F08BF5FEA1F
:10069000500E50F1000041EB045170BD06F00046D1
:1006A00046EA010140EA020081EA0301B4EB5C047E
:1006B000C2BFD4EB0C0541EA045170BD41F4801176
:1006C0004FF0000E013C00F3AB8014F1360FDEBF9B
:1006D000002001F0004170BDC4F10004203C35DA77
:1006E0000C341BDC04F11404C4F1200500FA05F3FA
:1006F00020FA04F001FA05F240EA020001F000429B
:1007000021F0004110EBD37021FA04F642EB060110
:100710005EEA430E08BF20EAD37070BDC4F10C043A
:10072000C4F1200500FA04F320FA05F001FA04F2FE
:1007300040EA020001F0004110EBD37041F10001EA
:100740005EEA430E08BF20EAD37070BDC4F12005F5
:1007500000FA05F24EEA020E20FA04F301FA05F25D
:1007600043EA020321FA04F001F0004121FA04F205
:1007700020EA020000EBD3705EEA430E08BF20EAD5
:10078000D37070BD94F0000F0FD101F0004640000F
:1007900041EB010111F4801F08BF013CF7D041EA91
:1007A000060195F0000F18BF704703F00046520095
:1007B00043EB030313F4801F08BF013DF7D043EA66
:1007C0000603704794EA0C0F0CEA135518BF95EA1C
:1007D0000C0F0CD050EA410618BF52EA4306D1D1A3
:1007E00081EA030101F000414FF0000070BD50EAC2
:1007F000410606BF1046194652EA430619D094EA4C
:100800000C0F02D150EA013613D195EA0C0F05D135
:1008100052EA03361CBF104619460AD181EA030189
:1008200001F0004141F0FE4141F470014FF0000041
:1008300070BD41F0FE4141F4780170BD70B54FF0DC
:10084000FF0C4CF4E06C1CEA11541DBF1CEA13555C
:1008500094EA0C0F95EA0C0F00F0A7F8A4EB05043E
:1008600081EA030E52EA03354FEA013100F0888035
:100870004FEA03334FF0805545EA131343EA1263FE
:100880004FEA022245EA111545EA10654FEA0026B3
:100890000EF000419D4208BF964244F1FD0404F56C
:1008A000407402D25B084FEA3202B61A65EB0305C8
:1008B0005B084FEA32024FF480104FF4002CB6EB85
:1008C000020E75EB030E22BFB61A754640EA0C0005
:1008D0005B084FEA3202B6EB020E75EB030E22BF45
:1008E000B61A754640EA5C005B084FEA3202B6EB86
:1008F000020E75EB030E22BFB61A754640EA9C0045
:100900005B084FEA3202B6EB020E75EB030E22BF14
:10091000B61A754640EADC0055EA060E18D04FEAD2
:10092000051545EA16754FEA06164FEAC30343EA72
:1009300052734FEAC2025FEA1C1CC0D111F4801F3F
:100940000BD141EA00014FF000004FF0004CB6E738
:1009500011F4801F04BF01430020B4F1FD0C88BFD7
:10096000BCF5E06F3FF6AFAEB5EB030C04BFB6EBE2
:10097000020C5FEA500C50F1000041EB045170BDD5
:100980000EF0004E4EEA113114EB5C04C2BFD4EB02
:100990000C0541EA045170BD41F480114FF0000E86
:1009A000013C90E645EA060E8DE60CEA135594EA02
:1009B0000C0F08BF95EA0C0F3FF43BAF94EA0C0F05
:1009C0000AD150EA01347FF434AF95EA0C0F7FF47A
:1009D00025AF104619462CE795EA0C0F06D152EACE
:1009E00003353FF4FDAE1046194622E750EA4106B2
:1009F00018BF52EA43067FF4C5AE50EA41047FF4C3
:100A00000DAF52EA43057FF4EBAE12E74FF0FF3C27
:100A100006E000BF4FF0010C02E000BF4FF0010CF8
:100A20004DF804CD4FEA410C7FEA6C5C4FEA430C71
:100A300018BF7FEA6C5C1BD001B050EA410C0CBFC0
:100A400052EA430C91EA030F02BF90EA020F002022
:100A5000704710F1000F91EA030F58BF994208BF89
:100A600090422CBFD8176FEAE37040F00100704746
:100A70004FEA410C7FEA6C5C02D150EA013C07D19D
:100A80004FEA430C7FEA6C5CD6D152EA033CD3D0E8
:100A90005DF8040B704700BF8446104662468C46E2
:100AA0001946634600E000BF01B5FFF7B7FF002815
:100AB00048BF10F1000F01BD4DF808EDFFF7F4FF3E
:100AC0000CBF012000205DF808FB00BF4DF808EDC9
:100AD000FFF7EAFF34BF012000205DF808FB00BFEC
:100AE0004DF808EDFFF7E0FF94BF012000205DF80E
:100AF00008FB00BF4DF808EDFFF7CEFF94BF0120C3
:100B000000205DF808FB00BF4DF808EDFFF7C4FFBB
:100B100034BF012000205DF808FB00BF4FEA41020E
:100B200012F5001215D211D56FF47873B3EB62523F
:100B300012D94FEAC12343F0004343EA505311F066
:100B4000004F23FA02F018BF404270474FF00000F8
:100B5000704750EA013005D111F0004008BF6FF036
:100B6000004070474FF00000704700BF4A0011D2AC
:100B700012F5001211D20DD56FF47873B3EB6252F7
:100B80000ED44FEAC12343F0004343EA505323FA03
:100B900002F070474FF00000704750EA013002D178
:100BA0004FF0FF3070474FF00000704753B94AB91B
:100BB000002908BF00281CBF4FF0FF314FF0FF3065
:100BC00000F070B9ADF1080C6DE904CE00F006F844
:100BD000DDF804E0DDE9022304B070472DE9F047B9
:100BE000089E0D4604460F46002B4AD18A42944681
:100BF00065D9B2FA82F343B102FA03FCC3F12002D1
:100C00009F4020FA02F217439C404FEA1C4E1FFA05
:100C10008CF5B7FBFEF1220C0EFB117742EA07427E
:100C200001FB05F090420AD91CEB020201F1FF37EB
:100C300080F01C81904240F2198102396244121AFC
:100C4000A4B2B2FBFEF00EFB102244EA024400FB09
:100C500005F5A5420AD91CEB040400F1FF3280F02F
:100C60000781A54240F204816444023840EA014011
:100C7000641B00211EB1DC400023C6E90043BDE82F
:100C8000F0878B4208D9002E00F0ED800021C6E9E4
:100C900000050846BDE8F087B3FA83F1002949D181
:100CA000AB4202D3824200F2F880841A65EB030261
:100CB00001201746002EE2D0C6E90047DFE702B95F
:100CC000FFDEB2FA82F3002B40F090808A1A4FEADE
:100CD0001C471FFA8CFE0121B2FBF7F507FB15201C
:100CE000220C42EA00420EFB05F0904208D91CEBB0
:100CF000020205F1FF3802D2904200F2CB80454655
:100D0000121AA4B2B2FBF7F007FB102244EA024425
:100D10000EFB00FEA64508D91CEB040400F1FF32CF
:100D200002D2A64500F2BB801046A4EB0E0440EAB6
:100D300005409FE7C1F120078B4022FA07FC4CEAEF
:100D4000030C05FA01F420FA07F3FD404FEA1C49B1
:100D50002343B5FBF9F81FFA8CFE09FB18551C0C50
:100D600044EA054408FB0EF5A54202FA01F200FA36
:100D700001F00BD91CEB040408F1FF3A80F08880E5
:100D8000A54240F28580A8F102086444641B9DB22C
:100D9000B4FBF9F309FB134445EA044403FB0EFEDC
:100DA000A64508D91CEB040403F1FF356CD2A64517
:100DB0006AD9023B644443EA0843A3FB0295A4EBCF
:100DC0000E04AC42C846AE4656D353D056B1B0EB33
:100DD000080264EB0E0404FA07F7CA40CC4017433C
:100DE000C6E9007418460021BDE8F087C3F1200170
:100DF00002FA03FC20FA01F225FA01F19D402A4390
:100E00004FEA1C471FFA8CFEB1FBF7F007FB1015E9
:100E1000110C41EA054100FB0EF58D4204FA03F482
:100E200008D91CEB010100F1FF382FD28D422DD9DA
:100E300002386144491B92B2B1FBF7F507FB15116B
:100E400042EA014205FB0EF1914208D91CEB020275
:100E500005F1FF3816D2914214D9023D6244521A6C
:100E600045EA004138E73146304608E73946E6E6CC
:100E70001046FBE64845A9D2B9EB020865EB0C0E1B
:100E8000013BA3E74546EAE72B4694E74046D1E716
:100E9000D0467BE7023D624432E708460AE76444F5
:100EA000023842E7704700BFBFF34F8F0549064B3A
:100EB000CA6802F4E0621343CB60BFF34F8F00BFF8
:100EC000FDE700BF00ED00E00400FA05FEE70000CA
:100ED00010B50748074C002103F0E8FE4FF4FA6014
:100EE00004F063FB4FF48061204602F0DAFAF5E784
:100EF000180200200010024070B53C210E480E4E32
:100F00000E4D03F008FA02F01BF9044602F018F93E
:100F1000001B0A28FAD931682B684A6AB2F5FA4FE1
:100F2000C6BFC2F580329B1A9B182B6000234B6210
:100F300002F006F90446E9E7D0010020080300208A
:100F400070B53C210E480E4E0E4D03F0E4F902F050
:100F5000F7F8044602F0F4F8001B0A28FAD93168C1
:100F60002B684A6AB2F5FA4FC6BFC2F580329B18A9
:100F70009B1A2B6000234B6202F0E2F80446E9E77B
:100F800088010020F002002000B595B02C2200213D
:100F900009A805F0EFFF1422002103A805F0EAFFDD
:100FA0000023194A0193116C41F080511164126CB5
:100FB00002F080520192019A144A0293116841F49E
:100FC0008041116012680E9302F480420292029AEC
:100FD0000222089201201022CDE90B0208A802F09B
:100FE00077FE014608B172B6FEE70F23CDE9033064
:100FF000CDE90500079003A803F044F808B172B6E4
:10100000FEE715B05DF804FB0038024000700040B8
:1010100080B59CB002F06EF8FFF7B6FF14220021F5
:1010200013A805F0A7FF0024AD4B00941A6BAD4840
:1010300042F010021A631A6B02F010020092009A3A
:1010400001941A6B42F080021A631A6B02F080025C
:101050000192019A02941A6B42F001021A631A6B10
:1010600002F001020292029A03941A6B42F0020209
:101070001A631A6B02F002020392039A04941A6B29
:1010800042F008021A631A6B02F008020492049AF2
:1010900005941A6B42F004021A631B6B03F00403FD
:1010A000059322464FF4BC61059B02F0F5F98E488A
:1010B00022463C2102F0F0F98C4822464FF4806130
:1010C00002F0EAF922468A484FF4005102F0E4F9AE
:1010D00001264FF4BC63834813A9CDE91336CDE94B
:1010E000154402F0FFF83C23CDE913367E481594F1
:1010F000022313A9169302F0F5F84FF480637B489E
:1011000013A9CDE913364FF48075CDE9154402F0EB
:10111000E9F84FF488137648159413A9CDE91353D1
:101120004FF4005702F0DEF87148724D13A9CDE973
:101130001376CDE9154402F0D5F81022214608A80F
:1011400005F018FF1C2221460CA8CDE9064405F045
:1011500011FF2022214613A805F00CFFDFF8ACC1D7
:10116000AC60A023C5E900C34FF47A73C5E903342A
:10117000284680236C61AB6103F048FA08B172B66F
:10118000FEE74FF4805308A92846089303F07FFC3C
:1011900008B172B6FEE7284603F064FA08B172B6E9
:1011A000FEE7CDE9060006A9284603F001FE08B1D6
:1011B00072B6FEE76023CDE90C30CDE910000E9049
:1011C00012900C220CA9284603F02EFB08B172B62F
:1011D000FEE7CDE91300CDE91500CDE917071A9018
:1011E00013A9284603F022FE044608B172B6FEE7B2
:1011F0002846414D01F000FD21461C2214A805F0AF
:10120000B9FE0A274FF080434FF6FF784FF00309ED
:1012100013A92846CDE90C44C5E90034C5E9038487
:10122000AC60AC61CDF84C901596179719961B974A
:1012300003F070FA08B172B6FEE7CDE90C000CA914
:10124000284603F0B5FD044608B172B6FEE72B4D03
:1012500001461C2214A805F08DFE294B2C6113A910
:101260002846CDE90C44C5E90034C5E90248AC6123
:10127000CDF84C901596179719961B9703F04AFADC
:1012800008B172B6FEE7CDE90C000CA9284603F0C0
:101290008FFD08B172B6FEE700251022002108A8D4
:1012A00005F068FE1C2229460CA8CDE9065505F07C
:1012B00061FE2022294613A805F05CFE114C124B5A
:1012C000A560C4E90035204641F61F43C4E9033553
:1012D000C4E9055503F09AF9D0B172B6FEE700BF34
:1012E00000380240001002400000024000040240AA
:1012F000000C02404001002088010020D0010020A5
:101300000004004060020020000401400000014091
:101310004FF4805308A92046089303F0B8FB08B1A6
:1013200072B6FEE7204603F09DF908B172B6FEE7FB
:10133000CDE9060006A9204603F03AFD024608B1B1
:1013400072B6FEE76023CDE90C30CDE90E00CDE9A1
:10135000100012900CA9204603F066FA08B172B68C
:10136000FEE704220CA9204603F05EFA08B172B62B
:10137000FEE7CDE91300CDE9150017904FF40053B7
:101380001A9013A92046189303F050FD08B172B6C5
:10139000FEE74D4B4D4C18614FF4E132C3E900427A
:1013A0000C22C3E90200C3E90520D861184603F006
:1013B00027FE08B172B6FEE7454B4649464A186219
:1013C000C3E900124FF48042C3E90200C3E90420DC
:1013D000C3E90600184602F06FF9044608B172B678
:1013E000FEE7CDE90C001022014613A805F0C2FD6E
:1013F0003A483B4A84600F23C0E900234FF6FF734D
:10140000C0E90334846103F059F908B172B6FEE70C
:10141000002332480CA9CDE90C3303F0C9FC024685
:1014200008B172B6FEE70123CDE91430139016908F
:1014300013A92A4803F08CFA044608B172B6FEE7F5
:1014400001F0ACFD27492048052204F022F8264A85
:101450002648214604F062F8254B264A18602146AA
:10146000254804F05BF8254B254A1860214625489D
:1014700004F054F8244B254A18602146244804F00F
:101480004DF8244B244A18602146244804F046F8BD
:10149000234B244A18602146234804F03FF8234B8D
:1014A000234A18602146234804F038F8224B234A87
:1014B00018602146224804F031F8224B186004F0ED
:1014C00001F804F011F8FEE7A802002000480040EF
:1014D000EC00002000540040A0860100180200200B
:1014E0000008004096000020087A0008D10E00088D
:1014F000B0000020987A0008E11A0008FC020020E1
:10150000BC7A00086916000800030020E07A000891
:10151000C11F000810030020747A00084928000841
:10152000E8000020E4790008CD0E0008AC0000209F
:10153000507A0008F90E0008C00000202C7A00083C
:10154000410F0008BC00002002490348052203F0B7
:10155000A0BF00BF96000020A802002000000000ED
:1015600070B5067F012E044610D1254D296871B94A
:1015700002F02AFF234B2E60186023681A6A22F0BB
:101580000A021A621A6A42F002021A6270BD012946
:10159000FCD1002102F018FF1B4B246818600023C7
:1015A0006362184B1A68194B904220DD801A18802C
:1015B0001888FEF7AFFF10A3D3E90023FFF714F854
:1015C000134B0022FFF710F8FFF7D0FA114B1880E9
:1015D00000232B60236A23F00A032362236A236219
:1015E0000D4B1A68D36823F00203D360CEE7DFDA2D
:1015F000801A0138DBE700BF006F8104C58FA13F6F
:1016000090000020880000208C0000208400002032
:101610000000E03F9400002018020020034B1B68EC
:1016200000225A625A6A8242FCD370471802002094
:1016300010B50B4C01224FF40051204601F02CFF55
:101640001420FFF7EBFF4FF400510022204601F079
:1016500023FF044B1A68D36843F00203D36010BD24
:10166000000C0240180200202DE9D043002494B061
:101670001022214606A8059405F07CFC1022214684
:101680000BA80A9405F076FC1022214610A80F94AE
:1016900005F070FC264F0026FFF7CAFF142003F068
:1016A00084FF244B24491A8805A805F043FC05AAA9
:1016B0000A21002001F052FC204BD3E90089494661
:1016C0004046FFF72BFA0446FEF724FF02460B467E
:1016D00040464946FEF7D0FD32463B46FEF784FFC2
:1016E000FFF71CFA80EAE073A3EBE073224614498B
:1016F0000AA805F01FFC0AAA1421002001F02EFC04
:10170000104A114913790293D37801939378009387
:10171000537812780FA805F00DFC0FAA1E210020A7
:1017200001F01CFC01F082FB0A2003F03EFFB3E74E
:1017300000408F40940000205079000828030020CA
:1017400060790008960000206E79000810B5084CFA
:101750004FF48061204601F0A4FE4FF4FA7001F0CE
:10176000F5FC20464FF48061BDE8104001F099BEC1
:10177000000402400000000008B5154B95221A80B5
:10178000144A00231360144A1360144A144B136064
:10179000144A51EC100B136009A3D3E90023FEF7A0
:1017A00023FF09A3D3E90023FEF768FDFFF7B6F98D
:1017B0000D4B18600D4B186008BD00BFAFF30080E3
:1017C0000000000000C0524000000000804FF240C6
:1017D00002000020B80000202003002008030020A1
:1017E000F8240100F00200200C030020F402002085
:1017F0000B4B70B5E622322055EC104B1A8003F0EB
:10180000D4FE084A084E00231360084AD6E90001B6
:10181000136022462B46FEF72FFDC6E9000170BD7E
:1018200002000020B8000020180300202003002040
:101830000B4B70B5D722322055EC104B1A8003F0B9
:10184000B4FE084A084E00231360084AD6E9000196
:10185000136022462B46FEF70FFDC6E9000170BD5E
:1018600002000020B8000020180300202003002000
:101870000B4B70B5C822322055EC104B1A8003F088
:1018800094FE084A084E00231360084AD6E9000176
:10189000136022462B46FEF7EFFCC6E9000170BD3F
:1018A00002000020B80000201803002020030020C0
:1018B0000B4B70B55A22322055EC104B1A8003F0B6
:1018C00074FE084A084E00231360084AD6E9000156
:1018D000136022462B46FEF7D1FCC6E9000170BD1D
:1018E00002000020B8000020180300202003002080
:1018F0000B4B70B56922322055EC104B1A8003F067
:1019000054FE084A084E00231360084AD6E9000135
:10191000136022462B46FEF7B1FCC6E9000170BDFC
:1019200002000020B800002018030020200300203F
:101930000B4B70B57822322055EC104B1A8003F017
:1019400034FE084A084E00231360084AD6E9000115
:10195000136022462B46FEF791FCC6E9000170BDDC
:1019600002000020B80000201803002020030020FF
:1019700038B504460D4659B3002822DD012225481A
:10198000102101F089FD00222021224801F084FD70
:1019900084EAE472A2EBE472B2F5FA6F2DDCB2F5E0
:1019A000FA7F2DDCC82A2EDC642A2FDC1A490B684A
:1019B000022A03F101030B601BDD4FF4FA74204689
:1019C00038BD00221348102101F066FD0122DBE73B
:1019D000002807DD01220F48082101F05DFD2A469D
:1019E0000421D2E70A460B48082101F055FD0122E7
:1019F000F6E7002CE3D00024E1E740F6B834DEE758
:101A00004FF4FA64DBE74FF4AF64D8E74FF47A742D
:101A1000D5E700BF000002402003002038B50022B7
:101A20002B4B054651EC100BFEF7DEFDFFF776F869
:101A3000044665B3002823DD01222648102101F069
:101A40002BFD00222021234801F026FD84EAE470CA
:101A5000A0EBE470B0F5967F2ADCC8282BDC962832
:101A60002CDC64282DDC0A282EDC1B4A1368012894
:101A700003F101031360CCBF4FF41670002038BD92
:101A800000221448102101F007FD0122DAE70028A6
:101A900007DA01220F48082101F0FEFC2A46042142
:101AA000D1E72A460B48082101F0F6FC0122F6E7AF
:101AB00040F6B830E3E74FF4FA60E0E74FF4C8606F
:101AC000DDE74FF4AF60DAE74FF47A70D7E700BF95
:101AD000000024400000024020030020000000001D
:101AE0002DE9F84F0024DFF8FC82DFF8FC92DFF8E4
:101AF000FCB2AD48A8F800402146A9F8004003F028
:101B0000D3F80421A84803F0CFF80C21584603F07D
:101B1000CBF8DBF80030A54895221A641021012289
:101B200001F0BAFCA1482246202101F0B5FC9F48F3
:101B30000122082101F0B0FC9C482246042101F05A
:101B4000ABFC4FF47A709A4D03F02FFDDBF80030B8
:101B5000B5F800A0C3F840A09649974BD1E9000121
:101B6000D3E90023FEF788FBBAF17E0F06460F4645
:101B70006BD847EC106B0120FFF750FFFEF7CAFC53
:101B800081A3D3E90023FEF72FFDFEF7EFFF80B21C
:101B9000A8F80000FEF7BEFC7DA3D3E90023FEF702
:101BA00023FDFEF7E3FF0022A9F8000000233046E2
:101BB0003946FEF7A9FF0246002840D001227B48A3
:101BC000082101F069FC00220421784801F064FC3E
:101BD0007A4B1B6863B10023A8F80030A9F80030E5
:101BE000774B1A68774B1A60774B1A68774B1A60F5
:101BF0006D4BB9F800001D68FEF78CFC66A3D3E9B5
:101C00000023FEF7F1FCFEF7B1FF6863B8F80000AF
:101C1000FEF780FC60A3D3E90023FEF7E5FCFEF7A6
:101C2000A5FFA863012003F0C0FC694B1A68B2F558
:101C30007A7FC4BF40F2E9321A600A2083E75B482A
:101C4000082101F029FC0122BEE7BAF1BD0F28D915
:101C500047EC106B0020FFF7E1FEA9F8000080B20E
:101C6000FEF758FC4AA3D3E90023FEF7BDFCFEF7BC
:101C70007DFF0022A8F80000002330463946FEF719
:101C800025FF024638B101224848102101F004FC2A
:101C90000022202199E74548102101F0FDFB012297
:101CA000F7E7DFF81CA1474B1868DAF8003000218D
:101CB000C01AFFF75DFEFEF72DFC33A3D3E9002326
:101CC000FEF792FCFEF752FF3E4BDAF800201B684D
:101CD000A8F800009B1A3D4A10683B4A1268801A17
:101CE00083EAE37180EAE072A1EBE371A2EBE072B8
:101CF000914203F16303CCBF013404F1FF340121AD
:101D0000C62B98BF0024FFF733FE2E4B1A68DAF873
:101D1000003020449A42A9F800002E4B4FF00002F8
:101D20003046394621DAFEF7EFFE08B1A82307E076
:101D3000294B002230463946FEF7C8FE10B18223F7
:101D40002B8045E7254B002230463946FEF74CFCF8
:101D5000204B0022FEF772FD11A3D3E90023FEF70A
:101D60008DFAFEF703FF288032E7FEF7CDFE00284C
:101D7000E5D1194B002230463946FEF7A7FE002870
:101D8000D4D1174B0022DFE7F4FDD478E926F13FE8
:101D9000E17A14AE47E1E23F666666666666F63F44
:101DA0000000000000A0624060020020000002402D
:101DB000020000201803002028030020B8000020A3
:101DC000F0020020F4020020080300200C03002091
:101DD0002003002000001440000014C00000334025
:101DE000000033C00603002004030020400100204F
:101DF0000E4B1A68142A10B54FF0010014DD0C4A7E
:101E000010600C4A002414800B4A1C6014800B4A9A
:101E100011680B4A11600B4A11680B4A4FF4967017
:101E2000116003F0C2FB204610BD00BF200300205C
:101E3000B80000200603002004030020F002002068
:101E4000F4020020080300200C0300200F490022A8
:101E5000002310B5C1E900230D490E4CC1E9002350
:101E60000D49C1E900230D4A002313609522228009
:101E70000B4A1360FFF7BCFCFFF7BAFF0028FBD149
:101E8000322003F092FB9523238010BD180300201D
:101E90002803002002000020C8000020B800002015
:101EA000200300200A4A10B500230A4C1360952233
:101EB0002280094A1360FFF7BBFCFFF799FF002857
:101EC000FBD1322003F071FB9523238010BD00BFAE
:101ED000B800002002000020200300200A4A10B5AC
:101EE00000230A4C136095222280094A1360FFF7F1
:101EF000BFFCFFF77DFF0028FBD1322003F055FB2C
:101F00009523238010BD00BFB800002002000020F0
:101F1000200300200A4A10B500230A4C13609522C2
:101F20002280094A1360FFF7C3FCFFF761FF002816
:101F3000FBD1322003F039FB9523238010BD00BF75
:101F4000B800002002000020200300200A4A10B53B
:101F500000230A4C136095222280094A1360FFF780
:101F6000C7FCFFF745FF0028FBD1322003F01DFB23
:101F70009523238010BD00BFB80000200200002080
:101F8000200300200A4A10B500230A4C1360952252
:101F90002280094A1360FFF7CBFCFFF729FF0028D6
:101FA000FBD1322003F001FB9523238010BD00BF3D
:101FB000B8000020020000202003002000000000E4
:101FC0002DE9F041BE4C2D23237057232DED068BB8
:101FD00063704123A3709FEDAC8B49239FEDAC9BB5
:101FE0009FEDADABE3700125542384B023712E46E1
:101FF000B44B62781A70E378A2782178DFF8E8822F
:10200000B14F88F800100A20303B303A4343642037
:1020100000FB02332279303A134429293B6000F057
:10202000D7804FF4FA7003F0C0FA98F80030413BC3
:10203000192B00F2CD80DFE813F05500CB00CB0068
:10204000CB00CB00CB00CB00CB00CB00CB00CB0038
:1020500047006901F4016502F9027D0039001C00A6
:102060001A00CB00E900CB00CB00CB006A03FEF7DF
:102070001BFF964B386800221A60FEF74BFA41ECC2
:10208000100BFFF779FBFFF7B3FE0028FBD1904B55
:1020900001221A60442323704F2363704E23A370E0
:1020A0004523E3702123237164202DE0874BB0EE9C
:1020B0004A0AF0EE6A0A00221A60FFF7C7FEFFF72D
:1020C00097FE0028FBD1E2E7804BB0EE4A0AF0EE23
:1020D0006A0A00221A60FFF71DFFFFF789FE002839
:1020E000FBD1D4E77B4F794B3888002231281A6026
:1020F00010D93238FEF70EFA41EC100BFFF73CFB1B
:102100003888142803D90A2003F04FFA60E0C0F1A0
:102110001400EFE7704A012313606D4A13604423F3
:1021200023704F2363704E23A3704523E370212354
:102130002371E8E7674FCEB39FED590BFFF722FFFE
:10214000322003F032FA9FED560BFFF7C7FE322024
:1021500003F02BFA9FED540BFFF70EFB4FF4FA70D0
:1021600003F023FA9FED4E0BFFF7B8FE322003F089
:102170001CFA9FED4B0BFFF705FF322003F015FA19
:102180003B88B3F5FA7F07D39FED490BFFF7F4FACD
:102190004FF4FA7003F009FA3888142830D94F4BFD
:1021A0001B6895221A64322003F0FFF93888474BE8
:1021B00000221D281A6040F299801E38FEF7AAF905
:1021C00041EC100BFFF7D8FA0A2003F0EEF90026D5
:1021D0003F4F3B68012B0FD1322003F0E6F9404915
:1021E00001A804F051FF4FF6FF733E480A2201A9EF
:1021F00002F034FF00233B600A2003F0D6F9F7E633
:102200001438FEF787F941EC100BBFE7314F002E71
:10221000CCD09FED230BFFF761FE322003F0C5F910
:102220009FED1F0BFFF7AEFE322003F0BEF99FEDCE
:10223000220BFFF7A1FA4FF4FA7003F0B6F99FED05
:10224000180BFFF79FFE322003F0AFF99FED140B40
:10225000FFF744FE322003F0A8F93B88B3F5FA7F7C
:1022600007D39FED130BFFF787FA4FF4FA7003F0D3
:102270009CF93888142892D81438FEF74BF941ECB1
:10228000100BF0E7AFF30080000000000080464034
:1022900000000000000024400000000000805640C4
:1022A00000000000008047400000000000001440D3
:1022B00000000000000034C00000000000001040DA
:1022C00096000020B4000020F80200202003002027
:1022D000D000002094000020B80000204001002021
:1022E00080790008A8020020EC020020CA4A0123DD
:1022F0001360CA4A1360442323704F2363704E2334
:10230000A3704523E370212323715DE7002D46D0A0
:10231000B0EE4A0AF0EE6A0AFFF7FCFDC04B1B68FC
:1023200095221A64322003F040F99FEDAF0BFFF7BE
:1023300023FA4FF47A7003F038F99FEDAD0BFFF7F5
:10234000B1FD4FF4FA7003F030F99FEDAB0BFFF7DE
:1023500013FA4FF4FA6003F028F99FEDA50BFFF78D
:10236000A1FD4FF4FA7003F020F99FEDA50BFFF7E4
:102370009FFA4FF4FA7003F018F9B0EE490AF0EE44
:10238000690AFFF7F9F94FF4FA7003F00EF99FEDBF
:102390009E0BFFF72DFA4FF4FA7003F006F9DFF801
:1023A0008882A04DB8F80000002736282F600BD98E
:1023B0003738FEF7AFF841EC100BFFF7DDF90A20D4
:1023C00003F0F3F8002503E7B0EE480AF0EE680AE0
:1023D000FFF784FDB0EE480AF0EE680AFFF7D2FD81
:1023E000322003F0E2F8B8F80030132B0FD88A4AF5
:1023F00001231360894A1360442323704F236370C1
:102400004E23A3704523E37021232371D7E7B0EE59
:10241000490AF0EE690A2F60FFF7AEF94FF4FA703F
:10242000DFE7002D46D0B0EE4A0AF0EE6A0AFFF769
:102430000DFD7B4B1B6895221A64322003F0B5F822
:102440009FED710BFFF798F94FF47A7003F0ADF838
:102450009FED670BFFF77AFD4FF4FA7003F0A5F8D4
:102460009FED6B0BFFF788F94FF4FA6003F09DF8CE
:102470009FED5F0BFFF76AFD4FF4FA7003F095F8DC
:102480009FED5F0BFFF7B4F94FF4FA7003F08DF88E
:10249000B0EE490AF0EE690AFFF76EF94FF4FA70F0
:1024A00003F083F89FED580BFFF702FA4FF4FA7030
:1024B00003F07BF8DFF870815A4DB8F80000002770
:1024C00036282F603FF674AFB0EE480AF0EE680A87
:1024D000FFF758FDB0EE480AF0EE680AFFF7FEFC81
:1024E000322003F062F8B8F80030132B7FF67FAF8C
:1024F000B0EE490AF0EE690A2F60FFF73DF94FF49C
:10250000FA70EEE7002D46D0B0EE4A0AF0EE6A0A05
:10251000FFF79CFC424B1B6895221A64322003F0A3
:1025200044F89FED390BFFF727F94FF47A7003F069
:102530003CF89FED2F0BFFF709FD4FF4FA7003F005
:1025400034F89FED330BFFF717F94FF4FA6003F0FF
:102550002CF89FED270BFFF7F9FC4FF4FA7003F00E
:1025600024F89FED270BFFF743F94FF4FA7003F0BF
:102570001CF8B0EE490AF0EE690AFFF7FDF84FF4D7
:10258000FA7003F012F89FED200BFFF791F94FF46A
:10259000FA7003F00AF8DFF89080224DB8F80000D6
:1025A000002736282F603FF603AFB0EE480AF0EE62
:1025B000680AFFF7E7FCB0EE480AF0EE680AFFF79A
:1025C0008DFC322002F0F1FFB8F80030132B7FF6BB
:1025D0000EAFB0EE490AF0EE690A2F60FFF7CCF8B3
:1025E0004FF4FA70EEE700BF000000000000394031
:1025F00000000000008066400000000000C057405E
:102600000000000000805B4000000000000034403B
:102610000000000000005940B8000020D000002059
:10262000400100202003002094000020002D46D00F
:10263000B0EE4A0AF0EE6A0AFFF76CFC424B1B68E8
:1026400095221A64322002F0B0FF9FED350BFFF7A0
:1026500093F84FF47A7002F0A8FF9FED330BFFF769
:1026600021FC4FF4FA7002F0A0FF9FED310BFFF751
:1026700083F84FF4FA6002F098FF9FED2B0BFFF701
:1026800011FC4FF4FA7002F090FF9FED2B0BFFF757
:102690000FF94FF4FA7002F088FFB0EE490AF0EE3D
:1026A000690AFFF769F84FF4FA7002F07EFF9FEDB8
:1026B000240BFFF79DF84FF4FA7002F076FFDFF875
:1026C0009480224DB8F80000002736282F603FF68E
:1026D0006FAEB0EE480AF0EE680AFFF7FFFBB0EE0F
:1026E000480AF0EE680AFFF74DFC322002F05DFF69
:1026F000B8F80030132B7FF67AAEB0EE490AF0EE50
:10270000690A2F60FFF738F84FF4FA70EEE7FFF729
:102710001DF80F4B01221A600C4B0022B9E400BFD8
:10272000000000000000394000000000008066400A
:102730000000000000C057400000000000805B4027
:102740000000000000003440400100202003002071
:10275000D00000209400002073B50C4E0C4A0D4DA3
:1027600010700C460A2331780093012399402846C3
:1027700001F04AF8317814230093224602234900DD
:10278000284601F019F902B070BD00BF000000201A
:10279000D4000020EC00002007B5074B074A517019
:1027A000197810701423009349000223044801F0A3
:1027B0002BF803B05DF804FB00000020D4000020DB
:1027C000EC00002008B500210620FFF7E5FF0A20F5
:1027D00002F0EBFE80210320FFF7DEFF0A2002F06B
:1027E000E4FE07210846FFF7D7FF0A2002F0DDFECE
:1027F00001210620FFF7D0FF0A2002F0D6FE20219B
:102800007F20FFF7C9FF0A2002F0CFFE2F21012011
:10281000FFF7C2FF0A2002F0C8FE00210846FFF7BA
:10282000BBFF0A2002F0C1FE00217F20FFF7B4FFAA
:102830000A2002F0BAFE07200021FFF7ADFFBDE835
:1028400008400A2002F0B1BE2DE9F04F85B0FFF735
:10285000B9FF0023ADF80C30642600240025322097
:1028600002F0A3FE03A93720FFF776FFBDF80C00A6
:10287000C0BAFDF74FFE0B460246CDE9002300F03B
:102880005FFCDDE9002320462946FDF7F7FC0446FE
:102890000D4600F055FC013EE1D1214BDFF884B03C
:1028A000002220462946FDF7C9FF06460F46FEF7DF
:1028B0004DFF00F045FC0FF26009D9E9008982461E
:1028C000322002F072FE03A93720FFF745FFBDF862
:1028D0000C00C0BAFDF71EFE32463B46FDF7CCFCAD
:1028E0000D46044600F02CFCA0EB0A00FDF702FEAA
:1028F00042464B46FDF7A2FF22462B46FDF774FEEB
:10290000DBE90023FDF7BAFCCBE9000100F018FC7D
:102910008246D5E7AFF30080000000000004D040FD
:10292000000059402803002013B5134B00240094E5
:102930005A6C42F480425A645A6C02F4804200920B
:10294000009A01941A6C42F080521A641B6C03F0D6
:102950008053019322460F216FF00100019B00F08C
:102960001BFC05210846224600F016FC052002B09B
:10297000BDE8104000F042BC0038024030B50446CB
:1029800089B01422002103A804F0F4FA2268144B41
:102990009A4222D1134C144800250195236B43F031
:1029A00002032363236B03F002030193019B4FF4A3
:1029B00040721223CDE9032303210423CDE906133A
:1029C00003A900F08FFC0295236C43F400132364E9
:1029D000236C03F400130293029B09B030BD00BFC7
:1029E00000540040003802400004024010B5044684
:1029F00088B01422002103A804F0BCFA2368254AF9
:102A000093421CD10022244B0092596C41F00101E9
:102A100059645B6C03F00103052100931820009BAF
:102A200000F0BAFB182000F0E9FB19200022052174
:102A300000F0B2FB192000F0E1FB08B010BD174A0E
:102A40009342FAD1144B1648002401945A6C42F078
:102A500002025A645A6C02F002020192019A029434
:102A60001A6B42F004021A631B6B03F00403029317
:102A7000C022029B0223CDE9032303A9032307936A
:102A800000F030FC2D202246052100F085FB2D2092
:102A9000D1E700BF000001400038024000040140BF
:102AA0000008024070B514228AB0044600210DEBE4
:102AB000020004F05FFA2368B3F1804F37D103F5C9
:102AC0000E33002400941A6C294842F001021A6463
:102AD0001A6C02F001020092009A01941A6B42F003
:102AE00001021A631A6B02F001020192019A029428
:102AF0001A6B42F002021A631B6B03F0020302938B
:102B0000029B02264FF40043012505A9CDE90536B5
:102B1000099500F0E7FB0823CDE90536CDE9074428
:102B20001448099505A900F0DDFB0AB070BD124AF2
:102B30009342FAD1114B0E48002103911A6C42F0D6
:102B400002021A641A6C02F002020392039A0491C0
:102B50001A6B42F001021A631B6B03F0010304932A
:102B6000049BC0220223CDE90523099305A9DAE7D6
:102B7000000002400004024000040040003802400F
:102B800010B5044688B01422002103A804F0F2F91D
:102B90002268174B9A4228D103F50C330024019484
:102BA0001A6C144842F004021A641A6C02F004020F
:102BB0000192019A02941A6B42F008021A631B6B8D
:102BC00003F0080302934FF48052029B03A90223EF
:102BD000CDE90323079300F085FB1E202246052143
:102BE00000F0DAFA1E2000F009FB08B010BD00BFAB
:102BF00000080040000C024010B5044686B01422C4
:102C0000002101A804F0B6F922680E4B9A4216D1B1
:102C1000002300930C4B0D481A6B42F010021A630C
:102C20001B6B03F010030093009B4FF480420223C0
:102C3000CDE9012301A90123059300F053FB06B060
:102C400010BD00BF000001400038024000100240EB
:102C500010B5044688B01422002103A804F08AF9B4
:102C60002268184B9A422BD103F5F83300240194C3
:102C70001A6C154842F480221A641A6C02F48022FD
:102C80000192019A02941A6B42F004021A631B6BC0
:102C900003F0040302934FF44062029B0223CDE948
:102CA000032303210723CDE9061303A900F01AFB30
:102CB00027202246052100F06FFA272000F09EFA17
:102CC00008B010BD0048004000080240FEE7FEE7E3
:102CD000FEE7FEE7FEE7704708B500F025FA03F0CF
:102CE00041FC012803D0BDE8084003F04BBF08BDFC
:102CF00070470000014801F081BB00BF4001002087
:102D0000FFF7F8BF014801F079BB00BF18020020AF
:102D1000014802F05DBA00BFA8020020014801F09E
:102D20006DBB00BF600200200B4A116810B503465E
:102D300009B90A491160106809490A4C0344091B82
:102D40008B4206D904F074F90C2303604FF0FF3076
:102D500010BD1360FCE700BF300300206852002064
:102D60000000022000040000034AD2F8883043F437
:102D70007003C2F88830704700ED00E0DFF834D00F
:102D80000D480E490E4A002302E0D458C4500433C3
:102D9000C4188C42F9D30B4A0B4C002301E013609A
:102DA0000432A242FBD3FFF7DFFF04F047F9FEF73E
:102DB0002FF970470000022000000020640000206E
:102DC000D88500086800002064520020FEE700005B
:102DD00070B50A46044601B101221348124E4FF461
:102DE000807100F059FB082500222021304600F0B8
:102DF00053FB23064CBF012200224021304600F045
:102E00004BFB013D01222021304600F045FB6400D0
:102E100015F0FF05E4B2E7D1BDE870400248012299
:102E20004FF4807100F038BB0010024070B50F4EB7
:102E3000B02400212046FFF7CBFF00210846FFF712
:102E4000C7FF00211020FFF7C3FF002516F835004B
:102E500001210135FFF7BCFF802DF7D10134E4B229
:102E6000B82C06F10106E4D170BD00BF3403002088
:102E70000023084810B41C460022C11801F8324053
:102E80000132802AFAD10133082BF5D15DF8044BC9
:102E9000FFF7CCBF34030020030610B512D43F293E
:102EA00010D801F00703C3F1070301249C40C908AF
:102EB000064BC1F10701C9B203EBC000435C12B17C
:102EC0002343435410BD23EA0403FAE734030020EC
:102ED0002DE9F74F1F46203A1E4B9DF830B0D2B275
:102EE00003EB021301931C4B02EB420203EB820340
:102EF0008146884600930C460026B74202D103B0B3
:102F0000BDE8F08F0C2F0CBF009B019B9D5D04F171
:102F100008035FFA83FA2B0658BFBBFA8BF22146EF
:102F200004F101044CBF5A4652094846E4B2FFF787
:102F3000B3FFA4EB08026D00BA42EDB207D109F16C
:102F400001005FFA80F9C24601365446D5E7A24532
:102F5000E1D1F9E7907F00081C7B0008F7B5044633
:102F60000D46561E012716F8013F0BB903B0F0BD00
:102F70007A2C82BF1035EDB200243A2D03D9FFF729
:102F800077FF00252C460097204632780C232946EF
:102F90000834FFF79DFFE4B2E5E7000010B500F04C
:102FA0007BFE404B404C1A6F22F001021A671A6FE9
:102FB00022F004021A6700F07DFE002280212046E4
:102FC00000F06AFA642000F0C1F801222046802156
:102FD00000F062FA0021AE20FFF7FAFE0021D520B2
:102FE000FFF7F6FE00215020FFF7F2FE0021A82097
:102FF000FFF7EEFE00213F20FFF7EAFE0021D3207D
:10300000FFF7E6FE00210846FFF7E2FE0021402020
:10301000FFF7DEFE00218D20FFF7DAFE00211420ED
:10302000FFF7D6FE00212020FFF7D2FE002102206C
:10303000FFF7CEFE0021A120FFF7CAFE0021C0202D
:10304000FFF7C6FE0021DA20FFF7C2FE00211220A2
:10305000FFF7BEFE00218120FFF7BAFE0021EF201E
:10306000FFF7B6FE0021D920FFF7B2FE0021F120C4
:10307000FFF7AEFE0021DB20FFF7AAFE0021302083
:10308000FFF7A6FE0021A420FFF7A2FE0021A62044
:10309000FFF79EFE0021AF20FFF79AFEBDE810402B
:1030A000FFF7E6BE003802400010024038B50E4B74
:1030B0001A784FF47A73B3FBF2F30C4A05461068A2
:1030C000B0FBF3F000F0A8F8044658B90F2D09D86A
:1030D000024629464FF0FF3000F05EF8044B2046D0
:1030E0001D6038BD0120FCE708000020040000201E
:1030F0000C00002008B50B4B1A6842F400721A60ED
:103100001A6842F480621A601A6842F480721A6087
:10311000032000F02FF80F20FFF7C8FFFFF704FC93
:10312000002008BD003C0240034A044B11681B7894
:103130000B441360704700BF3407002008000020D4
:10314000014B1868704700BF3407002038B50446AB
:10315000FFF7F6FF631C1CBF054B1B78054618BF25
:10316000E418FFF7EDFF431BA342FAD338BD00BFBD
:10317000080000200749CA6822F4E0620302120432
:1031800003F4E063120C134343F0BF6343F40033D2
:10319000CB60704700ED00E0164B30B5DC68C4F33F
:1031A0000224C4F10703251D042B28BF0423062D88
:1031B0004FF0FF358CBF033C002405FA03F321EAEE
:1031C0000303A54022EA0502A340002843EA0203C4
:1031D000ACBF00F16040084A4FEA0313B8BF00F0EB
:1031E0000F00DBB2AABF00F56140135480F8003332
:1031F00030BD00BF00ED00E014ED00E0002807DB6B
:103200004109044A00F01F000123834042F82130A5
:10321000704700BF00E100E00138B0F1807F0BD2C1
:103220004FF0E023054A5861F02182F82310002076
:10323000072298611A6170470120704700ED00E095
:1032400070B50446866DFFF77BFF94F83530022B8E
:10325000054606D0802363650120002384F83430BE
:1032600070BD23681A6822F016021A605A6922F0AB
:1032700080025A61226C0AB9A26C1AB11A6822F053
:1032800008021A601A6822F001021A6023681B689B
:1032900013F0010308D1E16D3F228A40B2600122A0
:1032A00084F835201846D8E7FFF74AFF401B052869
:1032B000ECD920230320636584F83500CDE790F82E
:1032C0003530022B03D0802343650120704702680C
:1032D000052380F83530136823F0010313600020C4
:1032E000704700002DE9F74FDFF8A891674A0023E7
:1032F0000D6801249C4004EA050CAC4340F0B18009
:103300004D6805F003044FEA43080326671E06FADA
:1033100008F6012F6FEA060634D8876807EA060E1A
:10332000CF6807FA08F747EA0E078760476827EA79
:103330000C0EC5F300179F4047EA0E074760C768A9
:1033400007EA060E8F6807FA08F747EA0E07022C0D
:10335000C76019D14FEAD30A00EB8A0A03F0070BC2
:10336000DAF820704FEA8B0B4FF00F0E0EFA0BFEBF
:1033700027EA0E0E0F6907FA0BF747EA0E07CAF89D
:10338000207001E0032CDAD1076804FA08F4374012
:103390003C4315F4403F046063D04FF0000ACDF881
:1033A00004A0D9F844603A4C46F48046C9F8446019
:1033B000D9F8446006F480460196019E23F0030686
:1033C00006F1804606F59C3603F0030ED6F8088019
:1033D0004FEA8E0E0F2707FA0EF7A04228EA0707DA
:1033E00046D004F58064A04244D004F58064A04235
:1033F00042D004F58064A04240D004F58064A0422D
:103400003ED004F58064A0423CD004F58064A04224
:103410003AD004F58064A0420CBF0724082404FAC3
:103420000EF43C43B46094686FEA0C06EF0254BF9C
:1034300034404CEA04049460D468AF0254BF344072
:103440004CEA0404D4605468AF0354BF34404CEADF
:10345000040454601468ED0354BF34404CEA04047F
:1034600014600133102B7FF443AF03B0BDE8F08F3D
:103470005446D4E70124D2E70224D0E70324CEE760
:103480000424CCE70524CAE70624C8E7003C014031
:1034900000000240003802400AB18161704709040F
:1034A000FBE7436901EA030221EA030141EA024121
:1034B0008161704701684B6913F480634FF000022B
:1034C00010D06FF480634B612023026380F83D309D
:1034D00080F83E20036C80F83C2043F00403036432
:1034E00001207047184670472DE9F84606460F46FA
:1034F00091461D464FEA114A3368BAF1010F0CBFDD
:103500005C699C6927EA0404A4B2B4FA84F46409EF
:10351000A14501D0002017E06A1CEED0FFF710FE95
:10352000089BC01AA84201D8002DE5D10023202213
:10353000336386F83D2086F83E30326C86F83C30A6
:1035400042F0200232640120BDE8F8862DE9F04106
:1035500004460F46164698462568686927EA000023
:1035600080B2B8B16B695A0516D52B6843F4007365
:103570002B606FF480636B6120220023236384F847
:103580003D2084F83E30226C42F00402226484F82C
:103590003C300120BDE8F081731CDED0FFF7D0FD88
:1035A000A0EB0800B04201D8002ED5D10023202284
:1035B000236384F83D2084F83E30226C42F02002E0
:1035C000E4E770B504460D46164621684B6913F0D2
:1035D000400301D0002010E04A69D2060ED56FF0FA
:1035E00010024A612022236384F83D2084F83E3093
:1035F000226C226484F83C30012070BDFFF7A0FDEE
:10360000801BA84201D8002DDFD100232022236394
:1036100084F83D2084F83E30226C42F02002E8E736
:1036200070B504460D46164623685B691B0601D536
:10363000002070BD2046FFF73DFFA8B96A1CF3D0FB
:10364000FFF77EFD801BA84201D8002DECD100239E
:103650002022236384F83D2084F83E30226C84F8D5
:103660003C3042F0200222640120E2E770B50446BB
:103670000D46164623685B695B0701D5002070BDC7
:103680002046FFF717FFA8B96A1CF3D0FFF758FDD3
:10369000801BA84201D8002DECD1002320222363F7
:1036A00084F83D2084F83E30226C84F83C3042F0AF
:1036B000200222640120E2E770B5044608B9012027
:1036C00070BD90F83D3003F0FF021BB980F83C203C
:1036D000FFF754F9242384F83D3023681A6822F058
:1036E00001021A601A6842F400421A601A6822F451
:1036F00000421A6000F060FD3F4B65689D4294BF38
:103700003E4B3F4B98428CBF00230123002BD6D168
:103710002268394E51683B4BB0FBF3F321F03F0177
:103720001943B542516088BF4FF49676116A88BF3D
:10373000734321F03F0184BF4FF47A76B3FBF6F375
:1037400001330B431362D169431E2B4821F44F41CF
:10375000854221F0FF0132D86D0040F6FC70B3FBCA
:10376000F5F30133034242D0C3F30B031943D16194
:10377000D4E907301168034321F0C0010B43136003
:103780009168D4E9030321F40341034321F0FF01CD
:103790000B439360D4E90530D168034321F0FF0166
:1037A0000B43D360136843F0010313600020202310
:1037B000206484F83D30206384F83E0080E7A068F0
:1037C00050B905EB4505B3FBF5F30133C3F30B0328
:1037D0007BB143F40043C9E719206843B3FBF0F31E
:1037E0000133C3F30B0323B143F44043BEE7042387
:1037F000BCE70123BAE700BFA08601007F841E005A
:10380000FF083D0040420F002DE9F043044685B01B
:1038100098460C9F0D469146FFF792FC94F83D3078
:10382000202B064604D00225284605B0BDE8F083CB
:1038300000905D49192301222046FFF755FE00281C
:10384000F1D194F83C30012BEDD02168012384F8AC
:103850003C300B68DA075EBF0B6843F001030B6076
:103860000B6823F400630B60212384F83D301023A0
:1038700084F83E3000232364A4F82A80638D2385D6
:103880004A4BE362E36AC4F82490082B04D0012B6E
:1038900002D013F5803F04D10B6843F480730B60B2
:1038A00002E0236B122BF7D0002200963B464FF02C
:1038B00001112046FFF718FE226838B11368DB05B6
:1038C00044BF4FF4007323640125ADE72369B3F5CA
:1038D000804F21D105F0FE051561354933463A4642
:1038E0002046FFF733FE05460028EDD123680390FC
:1038F0005A6903929B690393039B238DF3B9216853
:103900000A6842F400720A60202284F83D2084F89C
:103910003C3084F83E3087E7EB1103F0060343F0B8
:10392000F0031361234933463A462046FFF70EFE63
:103930000028C9D12368EDB21D61CEE73246394671
:103940002046FFF76DFE40B1236C042BBCD12268EA
:10395000136843F400731360B6E7636A20681A467D
:1039600012F8011B01616262628D013A92B26285B6
:10397000228DD0F814C0511E89B21CF0040F21858D
:103980000AD049B15978016102336362638D013B0A
:103990009BB2023A63852285324639462046FFF7BC
:1039A00065FE0028A9D0CFE7020010000000FFFF4D
:1039B00002000100080001002DE9F043044689B02F
:1039C0009846109F0E469146FFF7BAFB94F83D309B
:1039D000202B054604D00226304609B0BDE8F0830E
:1039E00000909A49192301222046FFF77DFD002807
:1039F000F1D194F83C30012BEDD02168012384F8FB
:103A00003C300B68DB075EBF0B6843F001030B60C3
:103A10000B6823F400630B60222384F83D301023ED
:103A200084F83E3000232364A4F82A80638D238524
:103A3000874BE362E36A0A68C4F8249042F4806228
:103A4000082B0A6004D0012B02D013F5803F04D16B
:103A50000B6843F480730B6002E0236B112BF7D0EB
:103A60003B46009500224FF001112046FFF73CFD38
:103A7000236838B11B68D80544BF4FF40073236432
:103A80000126A9E72269B2F5804F27D146F0010649
:103A9000F6B21E616F492B463A462046FFF756FDA7
:103AA00006460028ECD1238D2168002B4BD10390D2
:103AB0004B6903938B690393039B0B6843F4007377
:103AC0000B60DFF89881238D002B64D1202284F8CD
:103AD0003D2084F83C3084F83E307DE74FEAE6181C
:103AE00008F0060848F0F0021A615B492B463A4696
:103AF0002046FFF72BFD0028C2D123685549F6B2B6
:103B00001E613A462B462046FFF720FD024600285C
:103B1000B6D1236807905969079199690791079968
:103B2000196841F480711960204600953B464FF0BA
:103B30000111FFF7D9FC226808B113689BE748F030
:103B4000F1031361A6E7012B0AD10B6823F480630C
:103B50000B6004904B6904938B690493049BACE75E
:103B6000022B0B680DD123F480630B600B6843F4C8
:103B700000630B6005904B6905938B690593059B6A
:103B80009FE743F480630B6006904B6906938B6953
:103B90000693069B95E7032B62D8012B16D12A4684
:103BA00039462046FFF70DFD00287FF469AF2368F2
:103BB0001A69636A1A70636A01336362238D013B79
:103BC0002385638D013B9BB263857CE7022B0095C7
:103BD0003B464FF00002414620461AD1FFF784FCD5
:103BE00000287FF44DAF23681A6842F400721A600F
:103BF0001A69636A1A70626A531C6362238D013BFF
:103C00002385638D013B9BB2638523681B695370D9
:103C1000D1E7FFF769FC024600287FF431AF236843
:103C2000196821F4806119601969636A1970636AFF
:103C3000009501336362238D013B2385638D013B36
:103C40009BB2638541463B462046C7E70200100011
:103C50000000FFFF02000100080001000400010055
:103C60002A4639462046FFF7ACFC00287FF408AF0F
:103C700023681A69636A1A70626A531C6362238D2F
:103C8000013B2385638D013B9BB2638523685969A2
:103C900049077FF518AFB9E7044B01221A62044BBC
:103CA00082B01B680193019B02B0704700000E4276
:103CB00000700040044B00221A62044B82B01B6863
:103CC0000193019B02B0704700000E42007000405B
:103CD0002DE9F341044640B30368DD0710D423689F
:103CE00098075BD423681A0700F19D8023685B075F
:103CF00000F1BD80A069002840F0248100202CE064
:103D00008D4B9A6802F00C02042A07D09A6802F0E0
:103D10000C02082A0BD15B68590208D5864B1B6838
:103D20009A03DCD56368002BD9D1012015E06368C4
:103D3000814DB3F5803F13D12B6843F480332B6062
:103D4000FFF7FEF97C4E054633689B03C7D4FFF7A7
:103D5000F7F9401B6428F7D9032002B0BDE8F081D1
:103D6000B3F5A02F04D12B6843F480232B60E3E745
:103D70002A6822F480322A602A6822F480222A608B
:103D8000002BDDD1FFF7DCF906462B689F03A6D593
:103D9000FFF7D6F9801B6428F7D9DDE7664B9A68F0
:103DA00012F00C0F07D09A6802F00C02082A11D109
:103DB0005B685E020ED4604A13689D0702D5E36813
:103DC000012BB2D11368216923F0F80343EAC10340
:103DD000136087E7E268594BB2B101221A60FFF71E
:103DE000AFF9554D06462B68980707D52B68226911
:103DF00023F0F80343EAC2032B6073E7FFF7A0F94F
:103E0000801B0228EFD9A7E71A60FFF799F94A4EFD
:103E10000546336899077FF565AFFFF791F9401BB9
:103E20000228F6D998E76269444B82B10122C3F8AF
:103E3000802EFFF785F9404E0546736F9F073FF5CB
:103E400055AFFFF77DF9401B0228F6D984E7C3F888
:103E5000802EFFF775F9384E0546736F98077FF58A
:103E600045AFFFF76DF9401B0228F6D974E7324BD6
:103E70001A6C12F0805228D101921A6C42F08052D2
:103E80001A641B6C03F080530193019B01272C4D96
:103E90002B68D9051BD5A368274D012B27D12B6F84
:103EA00043F001032B67FFF74BF9234E054641F220
:103EB0008838336F9B0739D5002F3FF41BAF1E4A5C
:103EC000136C23F08053136414E70027DFE72B689B
:103ED00043F480732B60FFF733F906462B68DA054D
:103EE000D9D4FFF72DF9801B0228F7D934E7052B29
:103EF00004D12B6F43F004032B67D0E72A6F22F025
:103F000001022A672A6F22F004022A67002BCAD115
:103F1000FFF716F941F2883806462B6F9807CBD584
:103F2000FFF70EF9801B4045F7D915E7FFF708F9B1
:103F3000401B4045BDD90FE7003802400000474212
:103F400000700040364DAB6803F00C03082B3DD0E9
:103F5000344B002202281A662BD1FFF7F1F80646EF
:103F60002B6899011FD4D4E907321343626A43EAEC
:103F70008213E26A43EA0263A26A5208013A43EA00
:103F800002436B60274B264D01221A66FFF7D8F8D3
:103F900004462B689A013FF5B1AEFFF7D1F8001B3C
:103FA0000228F6D9D8E6FFF7CBF8801B0228D7D92C
:103FB000D2E6FFF7C5F804462B689B017FF59EAE5D
:103FC000FFF7BEF8001B0228F6D9C5E601283FF42A
:103FD000C4AE6B68E26903F4800191427FF4A5AE40
:103FE000216A03F03F028A427FF49FAE616A47F67E
:103FF000C0721A40B2EB811F7FF497AEA26A5208DA
:1040000003F44031013AB1EB024F7FF48EAEE26A25
:1040100003F07063B3EB026F3FF470AE85E600BF50
:104020000038024000004742134908B58B6803F08E
:104030000C03042B1CD0082B1CD14A684B68496820
:1040400013F4800314BF0D480D48C1F3881118BF45
:10405000002302F03F02A1FB0001FCF7A7FD064B85
:104060005B68C3F3014301335B00B0FBF3F008BDB1
:104070000248FCE70248FAE70038024040787D0138
:104080000024F4002DE9F0410D46044610B901204A
:10409000BDE8F081434B1A6802F007028A4228D338
:1040A00021688F072DD4C80740D43E4B1A6802F010
:1040B0000702AA4265D8226851076BD4130707D5B7
:1040C000394A2169936823F4604343EAC10393604A
:1040D000FFF7AAFF344B354A9B68C3F30313D35C45
:1040E000D840334B1860334B1868FEF7DFFF0020D1
:1040F000CEE7CAB21A701B6803F007038B42C6D121
:10410000CEE7294B11F0040F1EBF9A6842F4E0522B
:104110009A600E0742BF9A6842F460429A609A68B9
:10412000A06822F0F00202439A60BCE762681E4B6E
:10413000012A1CD11B6813F4003FA8D01A4EB368A3
:1041400023F003031343B360FEF7FAFF41F288380C
:104150000746B368626803F00C03B3EB820FA4D088
:10416000FEF7EEFFC01B4045F3D9032090E7911EF8
:1041700001291B6802D813F0007FDEE713F0020F5D
:10418000DBE7EAB21A701B6803F00703AB427FF467
:104190007EAF90E70449E0688B6823F4E053034363
:1041A0008B608BE7003C024000380240047B000833
:1041B000040000200C000020044B054A9B68C3F358
:1041C0008223D35C034A1068D8407047003802400D
:1041D000147B000804000020044B054A9B68C3F3CD
:1041E0004233D35C034A1068D8407047003802401D
:1041F000147B000804000020036A23F0010303621B
:10420000036A70B5446882690D6822F073022A431C
:104210008D6823F002032B430E4DA84202D00E4EB0
:10422000B04210D1CE6823F008033343A84223F0F4
:10423000040302D0084DA84205D1D1E9055624F463
:10424000407435432C43446082614A684263036290
:1042500070BD00BF0000014000040140036A23F468
:1042600080730362036A70B54468C2690D6822F006
:1042700073022A438D6823F4007343EA0523114D2A
:10428000A84203D005F58065A84214D1CD6823F477
:10429000006343EA05230B4DA84223F4806303D057
:1042A00005F58065A84206D1D1E9055624F44054AD
:1042B000354344EA05144460C2614A68C26303623C
:1042C00070BD00BF00000140036A23F48053036205
:1042D000036A30B54468C2690D6822F4E64242EAD6
:1042E00005228D6823F4005343EA0533084DA842A4
:1042F00003D005F58065A84204D14D6924F48044BB
:1043000044EA85144460C2614A680264036230BDB5
:1043100000000140704730B5034690F83E0093F826
:104320003F2093F8425093F84340C0B2D2B2EDB26E
:10433000E4B2C1B9012845D1012D13D1022283F87D
:104340003E2083F842201A68116A21F001011162AF
:10435000116A41F0010111621A68136843F0010308
:104360001360002030BD042911D1012A2AD1012C6B
:1043700028D1022283F83F2083F843201A68116A6B
:1043800021F010011162116A41F01001E3E70128E8
:1043900018D1012AE6D1012DE4D1012CE2D102226B
:1043A00083F83E2083F83F2083F8422083F843209F
:1043B0001A68116A21F001011162116A41F00101CC
:1043C0001162DCE70120CDE7082910D004D841B103
:1043D000042909D0002070470C29FBD10368186C10
:1043E00070470368586B70470368986B70470368A1
:1043F000D86B7047704770477047704703681A69F9
:10440000910710B504460ED5DA6892070BD56FF008
:1044100002021A61012202779B699B0777D0FDF7A0
:104420009FF80023237723681A69500710D5DA68AC
:1044300051070DD56FF004021A61022222779B69A1
:1044400013F4407F204668D0FDF78AF800232377D5
:1044500023681A6912070FD5DA6810070CD56FF0B8
:1044600008021A6104222277DB69990720465AD094
:10447000FDF776F80023237723681A69D20610D552
:10448000DA68D0060DD56FF010021A610822227783
:10449000DB6913F4407F20464BD0FDF761F8002321
:1044A000237723681A69D10708D5DA68D20705D5BA
:1044B0006FF001021A612046FFF79CFF23681A691A
:1044C000100608D5DA68110605D56FF080021A616A
:1044D000204600F0D2FC23681A69520608D5DA6833
:1044E000500605D56FF040021A612046FFF785FFA0
:1044F00023681A69910622D5DA6892061FD56FF0F3
:10450000200220461A61BDE8104000F0B5BCFFF75C
:1045100072FF2046FFF770FF83E7FFF76CFF20462E
:10452000FFF76AFF92E7FFF766FF2046FFF764FF99
:10453000A0E7FFF760FF2046FFF75EFFAFE710BD83
:10454000304A0368904212D0B0F1804F0FD0A2F5EC
:104550007C4290420BD002F58062904207D002F577
:104560008062904203D002F57842904219D14A68A5
:1045700023F070031343234A904229D0B0F1804FB7
:1045800026D0A2F57C42904222D002F58062904271
:104590001ED002F5806290421AD002F57842904215
:1045A00016D0194A904213D002F5806290420FD083
:1045B00002F5806290420BD0A2F59832904207D06B
:1045C00002F58062904203D002F58062904203D1EE
:1045D000CA6823F4407313434A6923F080031343EA
:1045E00003608B68C3620B688362064B984203D0FA
:1045F00003F58063984201D10B6903630123436192
:10460000704700BF000001400040014010B5044663
:1046100030B390F83D3003F0FF021BB980F83C2026
:10462000FEF7E4F90223206884F83D30211DFFF7EE
:1046300087FF012384F84630002084F83E3084F858
:104640003F3084F8403084F8413084F8423084F8B8
:10465000433084F8443084F8453084F83D3010BD50
:104660000120FCE710B5044630B390F83D3003F06C
:10467000FF021BB980F83C20FFF74CFE02232068A4
:1046800084F83D30211DFFF75BFF012384F846309D
:10469000002084F83E3084F83F3084F8403084F8BD
:1046A000413084F8423084F8433084F8443084F850
:1046B000453084F83D3010BD0120FCE710B50446BC
:1046C00030B390F83D3003F0FF021BB980F83C2076
:1046D000FEF756FA0223206884F83D30211DFFF7CB
:1046E0002FFF012384F84630002084F83E3084F800
:1046F0003F3084F8403084F8413084F8423084F808
:10470000433084F8443084F8453084F83D3010BD9F
:104710000120FCE7F8B50D46044600284CD090F87F
:104720003D3003F0FF021BB980F83C20FEF7BAF9D8
:104730002146022384F83D3051F8040B836823F4AA
:10474000804323F007038360FFF7FAFE81682A683D
:104750008369AE69076A1143AA6823F4407323F0A2
:10476000030342EA06221A432B69EE691B0143EA5E
:104770000623EE6833432E6A22F47C4222F0FC02C8
:1047800043EA063313436E696A68816027F0AA071B
:1047900042EA0612836117430123076284F8463018
:1047A000002084F83E3084F83F3084F8423084F8AA
:1047B000433084F83D30F8BD0120FCE7036A23F064
:1047C00010030362036A70B5446882690D6822F4BD
:1047D000E64242EA05228D6823F0200343EA0513EE
:1047E000104DA84203D005F58065A84214D1CD68CC
:1047F00023F0800343EA05130A4DA84223F0400347
:1048000003D005F58065A84206D1D1E9055624F408
:104810004064354344EA8504446082614A688263A7
:10482000036270BD0000014070B590F83C30012B70
:10483000054650D00123082A80F83C303BD007D8E9
:10484000C2B1042A27D01846002385F83C3070BD39
:104850000C2AF8D10068FFF737FDC3690A6943F4F1
:104860000063C361C36923F48063C361C36943EA1E
:1048700002232EE00068FFF7BFFC83690A6943F05A
:1048800008038361836923F004038361836913430D
:1048900083610020D8E70068FFF790FF83690A6909
:1048A00043F400638361836923F4806383618369D4
:1048B00043EA0223ECE70068FFF7D0FCC3690A690A
:1048C00043F00803C361C36923F00403C361C369F0
:1048D0001343C361DDE70220B9E7000070B5046A45
:1048E0001A4E24F001040462B0428469056A29D09A
:1048F000B0F1804F26D0A6F57C46B04222D006F516
:104900008066B0421ED006F58066B0421AD006F529
:104910007846B04216D006F57056B04212D0A6F5D1
:104920009436B0420ED044F001021B0122F0F00296
:10493000DBB2134301F00A0125F00A02114383613F
:10494000016270BD24F003042243EEE70000014041
:10495000F8B590F83C30012B05460C4600F08B80F2
:10496000012380F83C3092B90068CB68D1E900128D
:10497000FFF7B4FF8369A26823F00C0383618369A6
:10498000134383610020002385F83C30F8BD042ADE
:1049900024D10368186A20F01000D1E90027C96803
:1049A000186298691E6A20F4407040EA07200903E3
:1049B00020F4704089B21201014302F0A00226F0F7
:1049C000A000024399611A629A69A16822F44062C8
:1049D0009A619A6942EA01229A61D3E7082A22D1B0
:1049E00003681E6A26F48076D1E90020C9681E6239
:1049F000DF691E6A27F003073843090120F0F00041
:104A0000C9B21202014302F4206226F4206002437C
:104A1000D9611A62DA69A16822F00C02DA61DA69F6
:104A20000A43DA61AEE70C2A23D10368186A20F43E
:104A30008050D1E90027C9681862D8691E6A20F43D
:104A4000407040EA0720090320F4704089B2120345
:104A5000014302F4204226F420400243D9611A6245
:104A6000DA69A16822F44062DA61DA6942EA012275
:104A7000D7E7184687E7022088E710B58468114316
:104A800024F47F4441EA03232343836010BD38B5F7
:104A900090F83C30012B04464FF0020300F08E806A
:104AA000012280F83D3080F83C200068836823F4C0
:104AB0007F4323F0770383600B68602B4FD032D89D
:104AC000402B64D016D8202B0DD00AD833F010011B
:104AD00009D0012384F83D30002384F83C3010468F
:104AE00038BD302BF5D1826822F07002134343F0B9
:104AF000070328E0502BECD14A68CD68016A036AAD
:104B000023F001030362836921F00A0123F0F0031B
:104B100043EA05130A4383610262836823F070034A
:104B200043F057030FE0B3F5805F0DD0B3F5005F9E
:104B30000CD0702BCDD1CB68D1E90121FFF79DFFBF
:104B4000836843F0770383600022C2E7CB68D1E932
:104B50000121FFF792FF836843F48043F3E7036A80
:104B60004D68C96823F0100303628269036A22F466
:104B7000704223F0A00343EA051342EA0132826146
:104B80000362836823F0700343F06703DBE74A683E
:104B9000CD68016A036A23F001030362836921F08F
:104BA0000A0123F0F00343EA05130A43836102621A
:104BB000836823F0700343F04703C4E71A468EE787
:104BC000036A01F01F0110B501248C4023EA04039D
:104BD0000362036A8A401A43026210BD08B529B90C
:104BE00090F83E30012B18D001202CE004290DD183
:104BF00090F83F30013B18BF0123002BF4D104296A
:104C00004FF0020320D180F83F3009E008290CBFA3
:104C100090F8403090F84130ECE7022380F83E30C5
:104C200000680122FFF7CCFF1C4A904213D01C4BB6
:104C3000984210D0B0F1804F14D1836803F007037D
:104C4000062B26D1002008BD08290CBF80F8403073
:104C500080F84130E4E7436C904243F400434364FE
:104C6000EBD0E7E70F4B9842E7D003F5806398421B
:104C7000E3D003F580639842DFD003F57843984290
:104C8000DBD003F570539842D7D0A3F59433984204
:104C9000D3D0036843F001030360D3E70000014071
:104CA0000004014000040040FFF798BF08B5034628
:104CB000002942D190F83E0093F84220C0B201286A
:104CC000D2B271D1012A70D1022200294BD11868C9
:104CD00083F83E2083F84220C26842F00202C2609C
:104CE00018680122FFF76CFF304B98421AD0B0F1E0
:104CF000804F17D0A3F57C43984213D003F580630F
:104D000098420FD003F5806398420BD003F57843A7
:104D1000984207D003F57053984203D0A3F594331B
:104D2000984204D1836803F00703062B03D003687D
:104D300043F001030360002037E0042905D190F817
:104D40003F0093F84320C0B2B9E708290BBF90F8A1
:104D5000400093F8410093F8442093F845200CBF9D
:104D6000C0B2C0B2ABE7042908D1186883F83F206D
:104D700083F84320C26842F00402B0E7082908D152
:104D8000186883F8402083F84420C26842F0080283
:104D9000A5E70C2983F8412083F8452005D1186840
:104DA000C26842F010029AE7012008BD00000140ED
:104DB00030B590F83C30012B4FF0020332D080F830
:104DC0003D3003680D685C689A6824F070042C43D9
:104DD0005C60154CA3421AD0B3F1804F17D0A4F5F4
:104DE0007C44A34213D004F58064A3420FD004F5A1
:104DF0008064A3420BD004F57844A34207D004F5A5
:104E00007054A34203D0A4F59434A34204D149685A
:104E100022F080020A439A60012380F83D3000238B
:104E200080F83C30184630BD0000014090F83C301E
:104E3000012B1FD0CB688A6823F4407313434A6860
:104E400023F4806313430A6823F4006313430A695D
:104E500023F4805313434A6923F400531343CA696C
:104E600023F48043134302685364002380F83C30EA
:104E7000184670470220704770477047026802F179
:104E80000C0353E8003F23F490730C3242E80031E6
:104E900002680029F2D102F1140353E8003F23F025
:104EA000010302F1140C4CE800310029F3D1036B2B
:104EB000012B0BD102F10C0353E8003F23F0100348
:104EC00002F10C0C4CE800310029F3D1202380F8CA
:104ED0003E300023036370470268C168136923F4FE
:104EE00040530B4370B51361054683680069D16870
:104EF000034368690343E86921F4164121F00C017A
:104F000003430B43D3605369A96923F440730B43F4
:104F100053611F4B9A4203D003F580639A4223D119
:104F2000FFF75AF9EB691921B3F5004FD5E90046AF
:104F3000A0FB01011BD1B2194FF000035B41FBF74D
:104F400035FE6422B0FBF2F102FB1103DB003233C9
:104F5000B3FBF2F303F007025B0002EB011203F470
:104F6000F8731344A36070BDFFF726F9DAE7B200C7
:104F7000B30FFBF71BFE6422B0FBF2F102FB11033F
:104F80001B013233B3FBF2F303EB0113EAE700BF7B
:104F900000100140F8B504460E4617461D4622682B
:104FA000136836EA030301D1002028E06B1CF7D018
:104FB00025B1FEF7C5F8C01B8542F0D2226802F188
:104FC0000C0353E8003F23F4D0730C3242E8003066
:104FD00021680028F2D101F1140353E8003F23F0C7
:104FE000010301F1140040E80032002AF3D120232C
:104FF00084F83D3084F83C2084F83E300320F8BD2E
:1050000010B5044640B390F83D3003F0FF021BB9E1
:1050100080F83C20FDF71CFE2268242384F83D30F4
:10502000D36823F40053D3602046FFF755FF23686D
:105030001A6922F490421A615A6922F02A025A61CE
:10504000DA6842F40052DA6000202023206484F8F9
:105050003D3084F83E3010BD0120FCE7F7B517461F
:1050600090F83D200093202A04460E4649D100299D
:1050700045D0002F43D090F83C20012A41D0012296
:1050800080F83C2000252122056480F83D20FEF7B1
:1050900057F8A168009BA784B1F5805F0246E784BA
:1050A00003D1216909B935460E46002184F83C1028
:1050B000E18C89B241B940212046FFF76BFF60B90E
:1050C000202384F83D3009E080212046CDE90023EB
:1050D000FFF760FFDDE9002310B1032003B0F0BD4E
:1050E00020684EB935F8021BC1F308014160E18C1C
:1050F000013989B2E184DBE716F8011BF6E70120EC
:10510000ECE70220EAE77047704708B5806B0023A0
:10511000C385C384FFF7F8FF08BD704790F83E30A1
:10512000222B07B541D18168836A0268B1F5805F9F
:105130003ED1016900293ED15268C2F3080223F82A
:10514000022B8362C38D013B9BB2C385002B2CD104
:105150000268D16821F02001D160D16821F480710A
:10516000D160516921F001015161202280F83E2077
:10517000026B012A026828D1036302F10C0353E891
:10518000003F23F0100302F10C0C4CE80031002921
:10519000F3D11368DB0605D50191136801935368B9
:1051A0000193019B818DFFF7B8FF03B05DF804FB0D
:1051B00039B9016929B95268D2B21A70836A0133C8
:1051C000BFE7526802F07F02F7E7FCF7BDF9ECE7B2
:1051D00003681A6873B51607D9685D69044608D173
:1051E000960668D58D0666D502B0BDE87040FFF71B
:1051F00095BF05F0010001F4907505435BD0D6071B
:1052000005D5CD0542BF236C43F00103236453074A
:1052100004D518B1236C43F002032364960704D528
:1052200018B1236C43F004032364150707D501F07C
:10523000200303431EBF236C43F008032364236C45
:10524000002B32D0920604D58B0602D52046FFF7FC
:1052500065FF26687369226C03F0400302F00802C0
:1052600053EA0205204622D0FFF708FE73695E0666
:1052700018D5226802F1140353E8003F23F04003DD
:10528000143242E800310029F3D1A06B50B1724BC7
:105290000365FEF714F840B1A06B036D02B0BDE8E2
:1052A000704018472046FFF72FFF02B070BDFFF790
:1052B0002BFF2564F9E7206B012840F09180D5068B
:1052C00040F18E80C80640F18B80002201921A685E
:1052D00001925A680192019A5A6952064CD5A16B03
:1052E0000A68526892B2002ADFD0A08D9042DCD9C1
:1052F000E285CA69B2F5807F36D003F10C0252E82C
:10530000002F22F4807203F10C0040E800210029F4
:10531000F3D103F1140252E8002F22F0010203F14D
:10532000140040E800210029F3D103F1140252E8EF
:10533000002F22F0400203F1140040E80021002970
:10534000F3D1202284F83E20216303F10C0252E8BD
:10535000002F22F0100203F10C0040E80021002988
:10536000F3D1A06BFDF76CFFE38DA18DC91A89B253
:105370002046FFF7D2FE98E7E28DE08DA18D80B246
:1053800092B2002891D0891A89B200298DD003F1F8
:105390000C0252E8002F22F4907203F10C0545E84C
:1053A00000200028F3D103F1140252E8002F22F06C
:1053B000010203F1140545E800200028F3D1202262
:1053C00084F83E20206303F10C0252E8002F22F003
:1053D000100203F10C0545E800200028F3D1C7E7CF
:1053E000160628D50D0626D594F83D20212A7FF4EF
:1053F0005CAFA168226AB1F5805F17D12169A9B9B4
:1054000032F8021BC1F3080159602262E28C013AB2
:1054100092B2E284002A7FF448AFDA6822F0800278
:10542000DA60DA6842F04002DA603EE7511C21623D
:1054300012785A60EAE750067FF537AF4A067FF5E3
:1054400034AFDA6822F04002DA60202384F83D307D
:105450002046FFF758FE28E70B510008C2850023BD
:1054600082852222036480F83E20026980F83C3065
:10547000816203681AB1DA6842F48072DA605A69AC
:1054800042F001025A61DA6842F02002DA6000203C
:10549000704770B490F83E60202E10D161B15AB1BF
:1054A00090F83C40012C0AD0012480F83C400024B4
:1054B000046370BCFFF7D2BF012070BC70470220AC
:1054C000FBE70000EFF305832BB9064B186828B9FA
:1054D00001221A6070476FF0050070474FF0FF30EF
:1054E000704700BFE009002010B5EFF305845CB9F8
:1054F000084B1A68012A0AD1074AD47702221A6097
:1055000000F09AFD204610BD6FF00500FBE74FF05C
:10551000FF30F8E7E009002000ED00E0F0B587B0CB
:105520000B4600210591EFF30584CCB9C0B16AB3F5
:1055300095698D4208BF1825691E3729AC462AD8BF
:105540005168C90727D456696EB1B408D2E9027E02
:10555000116857B1BEF1A70F02D9126902B1E6B9BD
:10556000059807B0F0BD8024F0E7BEF1000FF7D139
:105570001269002AF4D105AACDE900C2A2B200F056
:105580002DFD01281CBF00230593E9E711464FF0CC
:10559000180C8024EFE72046E3E7CDE901270095CA
:1055A000224600F0E3FC0590DAE710B5EFF305843E
:1055B00024B910B100F0A8FE204610BD6FF0050020
:1055C000FBE70000034B0360034B0B608023136079
:1055D000704700BF3809002038070020034B0360E4
:1055E000034B0B604FF4807313607047E40D002091
:1055F000E409002000F108034FF0FF32C0E9022364
:105600004360036100230360704700230361704718
:1056100043684B609A688A609A6851609960036831
:10562000086101330360704730B50C68631C0AD110
:1056300003695A684A6091608B6059600368086129
:105640000133036030BD00F108021346526815684B
:10565000A542FAD9EDE7D0E9011203698A605160E9
:105660005968814208BF5A60002202611A68013AF3
:105670001A601868704710B5044601F01BFAA46B55
:1056800001F038FAB4FA84F0400910BDF8B51546B7
:10569000026C866B044652B9076847BB806800F00D
:1056A00071FFA76005460136A6632846F8BD65B9B7
:1056B000406801F0F1FC6368226C1344A2686360E7
:1056C0009342F0D323686360EDE7C06801F0E4FC27
:1056D000226CE36851429B1A2268E36093423EBF0A
:1056E000A3685B18E360022D01D116B1013E0025CD
:1056F000D9E73546D7E7034610B41A6C08466AB1B5
:10570000DC68996814448C4228BF1968DC6028BFA3
:10571000D960D9685DF8044B01F0BEBC5DF8044B5C
:10572000704770B5044601F0C5F994F8455004F18E
:1057300024066DB2002D14DCFF2384F8453001F0FF
:10574000D9F901F0B7F994F8445004F110066DB29C
:10575000002D12DCFF2384F84430BDE8704001F0D6
:10576000C9B9636A002BE7D0304600F069FE08B182
:1057700000F0F2FE013D6DB2DCE72369002BE9D0B9
:10578000304600F05DFE08B100F0E6FE013D6DB26E
:10579000DEE738B50D46044640B94FF0500383F3B9
:1057A0001188BFF36F8FBFF34F8FFEE701F082F9CF
:1057B000D4E90F31226862604B43D0185B1A1A4457
:1057C000A060FF230020A063E26084F8443084F8E6
:1057D0004530A5B9236973B104F1100000F030FE23
:1057E00048B14FF0E0234FF08052C3F8042DBFF3CF
:1057F0004F8FBFF36F8F01F07DF9012038BD04F1A9
:105800001000FFF7F7FE04F12400FFF7F3FEF2E7C4
:1058100013B51C4640B94FF0500383F31188BFF312
:105820006F8FBFF34F8FFEE743B94FF0500383F301
:105830001188BFF36F8FBFF34F8FFEE74AB191B965
:105840004FF0500383F31188BFF36F8FBFF34F8F77
:10585000FEE741B14FF0500383F31188BFF36F8F20
:10586000BFF34F8FFEE750230193019B502B08D0CD
:105870004FF0500383F31188BFF36F8FBFF34F8F47
:10588000FEE7002908BF2246019B22600123C4E9EC
:105890000F0184F8463019462046FFF77AFF9DF83D
:1058A000103084F84C30204602B010BD2DE9F04392
:1058B00085B0884601921F46044640B94FF0500318
:1058C00083F31188BFF36F8FBFF34F8FFEE751B99A
:1058D000036C43B14FF0500383F31188BFF36F8F14
:1058E000BFF34F8FFEE7022F0BD1E36B012B08D0E4
:1058F0004FF0500383F31188BFF36F8FBFF34F8FC7
:10590000FEE700F02FFE064650B9019B4BB14FF069
:10591000500383F31188BFF36F8FBFF34F8FFEE700
:1059200000264FF0000937E0019D1DB901F0E2F8B3
:10593000002052E016B902A800F0C6FD01F0DAF826
:1059400000F0CAFB01F0B6F894F84430FF2B08BF12
:1059500084F8449094F84530FF2B08BF84F84590B4
:1059600001F0C8F801A902A800F0BAFD00284AD148
:1059700001F0A0F8A26BE36B9A4231D101F0BAF8C2
:10598000019904F1100000F023FD2046FFF7C9FE45
:1059900000F046FC60B3012601F08CF8A26BE36BCB
:1059A0009A4201D3022FBFD13A4641462046FFF723
:1059B0006DFE636A1BB104F1240000F041FD48B1A3
:1059C0004FF0E0234FF08052C3F8042DBFF34F8F08
:1059D000BFF36F8F01F08EF8012005B0BDE8F083B2
:1059E00001F088F82046FFF79CFE00F019FCD2E792
:1059F0004FF0E0234FF08052C3F8042DBFF34F8FD8
:105A0000BFF36F8FC7E72046FFF78BFE00F008FC5F
:105A10008EE72DE9F843894690461F46044640B973
:105A20004FF0500383F31188BFF36F8FBFF34F8F95
:105A3000FEE751B9036C43B14FF0500383F3118873
:105A4000BFF36F8FBFF34F8FFEE7022F0BD1E36BD6
:105A5000012B08D04FF0500383F31188BFF36F8FF1
:105A6000BFF34F8FFEE701F03BF9EFF311864FF0E4
:105A7000500383F31188BFF36F8FBFF34F8FA26B77
:105A8000E36B9A4201D3022F23D194F84550A36BC4
:105A90006DB23A4649462046FFF7F8FD6B1C13D11C
:105AA000636A0BB901200BE004F1240000F0C8FC8C
:105AB0000028F7D0B8F1000FF4D00120C8F800009A
:105AC00086F31188BDE8F88301356DB284F845503E
:105AD000E8E70020F4E72DE9FF410F460192044674
